{
	"data": {
		"bytecode": {
			"linkReferences": {},
			"object": "608060405234801561001057600080fd5b50610b25806100206000396000f3fe608060405234801561001057600080fd5b506004361061002b5760003560e01c80636145556714610030575b600080fd5b61004361003e366004610838565b610045565b005b6000546001600160a01b0316331461009d5760405162461bcd60e51b815260206004820152601660248201527526bab9ba1037bbb7103a34329031b7b73a3930b1ba1760511b60448201526064015b60405180910390fd5b60006001600160a01b038616156101245750843b806101245760405162461bcd60e51b815260206004820152603960248201527f5f64656c65676174652061646472657373206973206e6f74206120636f6e747260448201527f61637420616e64206973206e6f742061646472657373283029000000000000006064820152608401610094565b600085858080601f01602080910402602001604051908101604052809392919081815260200183838082843760009201829052508451602080870198509596508601909401938693509150819050808080805b878a101561065457895160001a925082602914156106425789610199816108dd565b9a506101a79050878b6108f8565b808a526020808b018290206001600160e01b03198116600090815260019092526040909120548c99509097506001600160a01b0390811696509094508f166103dc576003896040516101f9919061093f565b9081526020016040518091039020549150816000141561025b5760405162461bcd60e51b815260206004820152601860248201527f46756e6374696f6e20646f6573206e6f742065786973742e00000000000000006044820152606401610094565b816102658161095b565b60025490935061027891506001906108f8565b905080821461031b576002818154811061029457610294610972565b90600052602060002001600283815481106102b1576102b1610972565b906000526020600020019080546102c790610988565b6102d292919061069e565b506102de8260016109c3565b6003600283815481106102f3576102f3610972565b9060005260206000200160405161030a91906109db565b908152604051908190036020019020555b600280548061032c5761032c610a77565b6001900381819060005260206000200160006103489190610729565b905560038960405161035a919061093f565b90815260408051602092819003830181206000908190556001600160e01b03198a16808252600190945291822080546001600160a01b031916905590916001600160a01b038816917f3234040ce3bd4564874e44810f198910133a1b24c4e84aac87edbf6b458f5353906103cf908e90610a8d565b60405180910390a461063d565b6003896040516103ec919061093f565b90815260200160405180910390205460001415610547576001600160a01b0385161561044a5760405162461bcd60e51b815260206004820152600d60248201526c233ab731a4b21031b630b9b41760991b6044820152606401610094565b8e60016000886001600160e01b0319166001600160e01b031916815260200190815260200160002060006101000a8154816001600160a01b0302191690836001600160a01b031602179055506002899080600181540180825580915050600190039060005260206000200160009091909190915090805190602001906104d1929190610766565b506002546040516003906104e6908c9061093f565b9081526020016040518091039020819055508e6001600160a01b031660006001600160a01b0316876001600160e01b0319167f3234040ce3bd4564874e44810f198910133a1b24c4e84aac87edbf6b458f53538c6040516103cf9190610a8d565b8e6001600160a01b031660016000886001600160e01b0319166001600160e01b031916815260200190815260200160002060009054906101000a90046001600160a01b03166001600160a01b03161461063d578e60016000886001600160e01b0319166001600160e01b031916815260200190815260200160002060006101000a8154816001600160a01b0302191690836001600160a01b031602179055508e6001600160a01b0316856001600160a01b0316876001600160e01b0319167f3234040ce3bd4564874e44810f198910133a1b24c4e84aac87edbf6b458f53538c6040516106349190610a8d565b60405180910390a45b978301975b8961064c816108dd565b9a5050610177565b7faa1c0a0a78cec2470f9652e5d29540752e7a64d70f926933cebf13afaeda45de8c8c604051610685929190610ac0565b60405180910390a1505050505050505050505050505050565b8280546106aa90610988565b90600052602060002090601f0160209004810192826106cc5760008555610719565b82601f106106dd5780548555610719565b8280016001018555821561071957600052602060002091601f016020900482015b828111156107195782548255916001019190600101906106fe565b506107259291506107da565b5090565b50805461073590610988565b6000825580601f10610745575050565b601f01602090049060005260206000209081019061076391906107da565b50565b82805461077290610988565b90600052602060002090601f0160209004810192826107945760008555610719565b82601f106107ad57805160ff1916838001178555610719565b82800160010185558215610719579182015b828111156107195782518255916020019190600101906107bf565b5b8082111561072557600081556001016107db565b60008083601f84011261080157600080fd5b50813567ffffffffffffffff81111561081957600080fd5b60208301915083602082850101111561083157600080fd5b9250929050565b60008060008060006060868803121561085057600080fd5b85356001600160a01b038116811461086757600080fd5b9450602086013567ffffffffffffffff8082111561088457600080fd5b61089089838a016107ef565b909650945060408801359150808211156108a957600080fd5b506108b6888289016107ef565b969995985093965092949392505050565b634e487b7160e01b600052601160045260246000fd5b60006000198214156108f1576108f16108c7565b5060010190565b60008282101561090a5761090a6108c7565b500390565b60005b8381101561092a578181015183820152602001610912565b83811115610939576000848401525b50505050565b6000825161095181846020870161090f565b9190910192915050565b60008161096a5761096a6108c7565b506000190190565b634e487b7160e01b600052603260045260246000fd5b600181811c9082168061099c57607f821691505b602082108114156109bd57634e487b7160e01b600052602260045260246000fd5b50919050565b600082198211156109d6576109d66108c7565b500190565b600080835481600182811c9150808316806109f757607f831692505b6020808410821415610a1757634e487b7160e01b86526022600452602486fd5b818015610a2b5760018114610a3c57610a69565b60ff19861689528489019650610a69565b60008a81526020902060005b86811015610a615781548b820152908501908301610a48565b505084890196505b509498975050505050505050565b634e487b7160e01b600052603160045260246000fd5b6020815260008251806020840152610aac81604085016020870161090f565b601f01601f19169190910160400192915050565b60208152816020820152818360408301376000818301604090810191909152601f909201601f1916010191905056fea26469706673582212200b0d07812a227c3fb6ace87195663cb783aec878748f24f348cbf0fe4412772e64736f6c63430008090033",
			"opcodes": "PUSH1 0x80 PUSH1 0x40 MSTORE CALLVALUE DUP1 ISZERO PUSH2 0x10 JUMPI PUSH1 0x0 DUP1 REVERT JUMPDEST POP PUSH2 0xB25 DUP1 PUSH2 0x20 PUSH1 0x0 CODECOPY PUSH1 0x0 RETURN INVALID PUSH1 0x80 PUSH1 0x40 MSTORE CALLVALUE DUP1 ISZERO PUSH2 0x10 JUMPI PUSH1 0x0 DUP1 REVERT JUMPDEST POP PUSH1 0x4 CALLDATASIZE LT PUSH2 0x2B JUMPI PUSH1 0x0 CALLDATALOAD PUSH1 0xE0 SHR DUP1 PUSH4 0x61455567 EQ PUSH2 0x30 JUMPI JUMPDEST PUSH1 0x0 DUP1 REVERT JUMPDEST PUSH2 0x43 PUSH2 0x3E CALLDATASIZE PUSH1 0x4 PUSH2 0x838 JUMP JUMPDEST PUSH2 0x45 JUMP JUMPDEST STOP JUMPDEST PUSH1 0x0 SLOAD PUSH1 0x1 PUSH1 0x1 PUSH1 0xA0 SHL SUB AND CALLER EQ PUSH2 0x9D JUMPI PUSH1 0x40 MLOAD PUSH3 0x461BCD PUSH1 0xE5 SHL DUP2 MSTORE PUSH1 0x20 PUSH1 0x4 DUP3 ADD MSTORE PUSH1 0x16 PUSH1 0x24 DUP3 ADD MSTORE PUSH22 0x26BAB9BA1037BBB7103A34329031B7B73A3930B1BA17 PUSH1 0x51 SHL PUSH1 0x44 DUP3 ADD MSTORE PUSH1 0x64 ADD JUMPDEST PUSH1 0x40 MLOAD DUP1 SWAP2 SUB SWAP1 REVERT JUMPDEST PUSH1 0x0 PUSH1 0x1 PUSH1 0x1 PUSH1 0xA0 SHL SUB DUP7 AND ISZERO PUSH2 0x124 JUMPI POP DUP5 EXTCODESIZE DUP1 PUSH2 0x124 JUMPI PUSH1 0x40 MLOAD PUSH3 0x461BCD PUSH1 0xE5 SHL DUP2 MSTORE PUSH1 0x20 PUSH1 0x4 DUP3 ADD MSTORE PUSH1 0x39 PUSH1 0x24 DUP3 ADD MSTORE PUSH32 0x5F64656C65676174652061646472657373206973206E6F74206120636F6E7472 PUSH1 0x44 DUP3 ADD MSTORE PUSH32 0x61637420616E64206973206E6F74206164647265737328302900000000000000 PUSH1 0x64 DUP3 ADD MSTORE PUSH1 0x84 ADD PUSH2 0x94 JUMP JUMPDEST PUSH1 0x0 DUP6 DUP6 DUP1 DUP1 PUSH1 0x1F ADD PUSH1 0x20 DUP1 SWAP2 DIV MUL PUSH1 0x20 ADD PUSH1 0x40 MLOAD SWAP1 DUP2 ADD PUSH1 0x40 MSTORE DUP1 SWAP4 SWAP3 SWAP2 SWAP1 DUP2 DUP2 MSTORE PUSH1 0x20 ADD DUP4 DUP4 DUP1 DUP3 DUP5 CALLDATACOPY PUSH1 0x0 SWAP3 ADD DUP3 SWAP1 MSTORE POP DUP5 MLOAD PUSH1 0x20 DUP1 DUP8 ADD SWAP9 POP SWAP6 SWAP7 POP DUP7 ADD SWAP1 SWAP5 ADD SWAP4 DUP7 SWAP4 POP SWAP2 POP DUP2 SWAP1 POP DUP1 DUP1 DUP1 DUP1 JUMPDEST DUP8 DUP11 LT ISZERO PUSH2 0x654 JUMPI DUP10 MLOAD PUSH1 0x0 BYTE SWAP3 POP DUP3 PUSH1 0x29 EQ ISZERO PUSH2 0x642 JUMPI DUP10 PUSH2 0x199 DUP2 PUSH2 0x8DD JUMP JUMPDEST SWAP11 POP PUSH2 0x1A7 SWAP1 POP DUP8 DUP12 PUSH2 0x8F8 JUMP JUMPDEST DUP1 DUP11 MSTORE PUSH1 0x20 DUP1 DUP12 ADD DUP3 SWAP1 KECCAK256 PUSH1 0x1 PUSH1 0x1 PUSH1 0xE0 SHL SUB NOT DUP2 AND PUSH1 0x0 SWAP1 DUP2 MSTORE PUSH1 0x1 SWAP1 SWAP3 MSTORE PUSH1 0x40 SWAP1 SWAP2 KECCAK256 SLOAD DUP13 SWAP10 POP SWAP1 SWAP8 POP PUSH1 0x1 PUSH1 0x1 PUSH1 0xA0 SHL SUB SWAP1 DUP2 AND SWAP7 POP SWAP1 SWAP5 POP DUP16 AND PUSH2 0x3DC JUMPI PUSH1 0x3 DUP10 PUSH1 0x40 MLOAD PUSH2 0x1F9 SWAP2 SWAP1 PUSH2 0x93F JUMP JUMPDEST SWAP1 DUP2 MSTORE PUSH1 0x20 ADD PUSH1 0x40 MLOAD DUP1 SWAP2 SUB SWAP1 KECCAK256 SLOAD SWAP2 POP DUP2 PUSH1 0x0 EQ ISZERO PUSH2 0x25B JUMPI PUSH1 0x40 MLOAD PUSH3 0x461BCD PUSH1 0xE5 SHL DUP2 MSTORE PUSH1 0x20 PUSH1 0x4 DUP3 ADD MSTORE PUSH1 0x18 PUSH1 0x24 DUP3 ADD MSTORE PUSH32 0x46756E6374696F6E20646F6573206E6F742065786973742E0000000000000000 PUSH1 0x44 DUP3 ADD MSTORE PUSH1 0x64 ADD PUSH2 0x94 JUMP JUMPDEST DUP2 PUSH2 0x265 DUP2 PUSH2 0x95B JUMP JUMPDEST PUSH1 0x2 SLOAD SWAP1 SWAP4 POP PUSH2 0x278 SWAP2 POP PUSH1 0x1 SWAP1 PUSH2 0x8F8 JUMP JUMPDEST SWAP1 POP DUP1 DUP3 EQ PUSH2 0x31B JUMPI PUSH1 0x2 DUP2 DUP2 SLOAD DUP2 LT PUSH2 0x294 JUMPI PUSH2 0x294 PUSH2 0x972 JUMP JUMPDEST SWAP1 PUSH1 0x0 MSTORE PUSH1 0x20 PUSH1 0x0 KECCAK256 ADD PUSH1 0x2 DUP4 DUP2 SLOAD DUP2 LT PUSH2 0x2B1 JUMPI PUSH2 0x2B1 PUSH2 0x972 JUMP JUMPDEST SWAP1 PUSH1 0x0 MSTORE PUSH1 0x20 PUSH1 0x0 KECCAK256 ADD SWAP1 DUP1 SLOAD PUSH2 0x2C7 SWAP1 PUSH2 0x988 JUMP JUMPDEST PUSH2 0x2D2 SWAP3 SWAP2 SWAP1 PUSH2 0x69E JUMP JUMPDEST POP PUSH2 0x2DE DUP3 PUSH1 0x1 PUSH2 0x9C3 JUMP JUMPDEST PUSH1 0x3 PUSH1 0x2 DUP4 DUP2 SLOAD DUP2 LT PUSH2 0x2F3 JUMPI PUSH2 0x2F3 PUSH2 0x972 JUMP JUMPDEST SWAP1 PUSH1 0x0 MSTORE PUSH1 0x20 PUSH1 0x0 KECCAK256 ADD PUSH1 0x40 MLOAD PUSH2 0x30A SWAP2 SWAP1 PUSH2 0x9DB JUMP JUMPDEST SWAP1 DUP2 MSTORE PUSH1 0x40 MLOAD SWAP1 DUP2 SWAP1 SUB PUSH1 0x20 ADD SWAP1 KECCAK256 SSTORE JUMPDEST PUSH1 0x2 DUP1 SLOAD DUP1 PUSH2 0x32C JUMPI PUSH2 0x32C PUSH2 0xA77 JUMP JUMPDEST PUSH1 0x1 SWAP1 SUB DUP2 DUP2 SWAP1 PUSH1 0x0 MSTORE PUSH1 0x20 PUSH1 0x0 KECCAK256 ADD PUSH1 0x0 PUSH2 0x348 SWAP2 SWAP1 PUSH2 0x729 JUMP JUMPDEST SWAP1 SSTORE PUSH1 0x3 DUP10 PUSH1 0x40 MLOAD PUSH2 0x35A SWAP2 SWAP1 PUSH2 0x93F JUMP JUMPDEST SWAP1 DUP2 MSTORE PUSH1 0x40 DUP1 MLOAD PUSH1 0x20 SWAP3 DUP2 SWAP1 SUB DUP4 ADD DUP2 KECCAK256 PUSH1 0x0 SWAP1 DUP2 SWAP1 SSTORE PUSH1 0x1 PUSH1 0x1 PUSH1 0xE0 SHL SUB NOT DUP11 AND DUP1 DUP3 MSTORE PUSH1 0x1 SWAP1 SWAP5 MSTORE SWAP2 DUP3 KECCAK256 DUP1 SLOAD PUSH1 0x1 PUSH1 0x1 PUSH1 0xA0 SHL SUB NOT AND SWAP1 SSTORE SWAP1 SWAP2 PUSH1 0x1 PUSH1 0x1 PUSH1 0xA0 SHL SUB DUP9 AND SWAP2 PUSH32 0x3234040CE3BD4564874E44810F198910133A1B24C4E84AAC87EDBF6B458F5353 SWAP1 PUSH2 0x3CF SWAP1 DUP15 SWAP1 PUSH2 0xA8D JUMP JUMPDEST PUSH1 0x40 MLOAD DUP1 SWAP2 SUB SWAP1 LOG4 PUSH2 0x63D JUMP JUMPDEST PUSH1 0x3 DUP10 PUSH1 0x40 MLOAD PUSH2 0x3EC SWAP2 SWAP1 PUSH2 0x93F JUMP JUMPDEST SWAP1 DUP2 MSTORE PUSH1 0x20 ADD PUSH1 0x40 MLOAD DUP1 SWAP2 SUB SWAP1 KECCAK256 SLOAD PUSH1 0x0 EQ ISZERO PUSH2 0x547 JUMPI PUSH1 0x1 PUSH1 0x1 PUSH1 0xA0 SHL SUB DUP6 AND ISZERO PUSH2 0x44A JUMPI PUSH1 0x40 MLOAD PUSH3 0x461BCD PUSH1 0xE5 SHL DUP2 MSTORE PUSH1 0x20 PUSH1 0x4 DUP3 ADD MSTORE PUSH1 0xD PUSH1 0x24 DUP3 ADD MSTORE PUSH13 0x233AB731A4B21031B630B9B417 PUSH1 0x99 SHL PUSH1 0x44 DUP3 ADD MSTORE PUSH1 0x64 ADD PUSH2 0x94 JUMP JUMPDEST DUP15 PUSH1 0x1 PUSH1 0x0 DUP9 PUSH1 0x1 PUSH1 0x1 PUSH1 0xE0 SHL SUB NOT AND PUSH1 0x1 PUSH1 0x1 PUSH1 0xE0 SHL SUB NOT AND DUP2 MSTORE PUSH1 0x20 ADD SWAP1 DUP2 MSTORE PUSH1 0x20 ADD PUSH1 0x0 KECCAK256 PUSH1 0x0 PUSH2 0x100 EXP DUP2 SLOAD DUP2 PUSH1 0x1 PUSH1 0x1 PUSH1 0xA0 SHL SUB MUL NOT AND SWAP1 DUP4 PUSH1 0x1 PUSH1 0x1 PUSH1 0xA0 SHL SUB AND MUL OR SWAP1 SSTORE POP PUSH1 0x2 DUP10 SWAP1 DUP1 PUSH1 0x1 DUP2 SLOAD ADD DUP1 DUP3 SSTORE DUP1 SWAP2 POP POP PUSH1 0x1 SWAP1 SUB SWAP1 PUSH1 0x0 MSTORE PUSH1 0x20 PUSH1 0x0 KECCAK256 ADD PUSH1 0x0 SWAP1 SWAP2 SWAP1 SWAP2 SWAP1 SWAP2 POP SWAP1 DUP1 MLOAD SWAP1 PUSH1 0x20 ADD SWAP1 PUSH2 0x4D1 SWAP3 SWAP2 SWAP1 PUSH2 0x766 JUMP JUMPDEST POP PUSH1 0x2 SLOAD PUSH1 0x40 MLOAD PUSH1 0x3 SWAP1 PUSH2 0x4E6 SWAP1 DUP13 SWAP1 PUSH2 0x93F JUMP JUMPDEST SWAP1 DUP2 MSTORE PUSH1 0x20 ADD PUSH1 0x40 MLOAD DUP1 SWAP2 SUB SWAP1 KECCAK256 DUP2 SWAP1 SSTORE POP DUP15 PUSH1 0x1 PUSH1 0x1 PUSH1 0xA0 SHL SUB AND PUSH1 0x0 PUSH1 0x1 PUSH1 0x1 PUSH1 0xA0 SHL SUB AND DUP8 PUSH1 0x1 PUSH1 0x1 PUSH1 0xE0 SHL SUB NOT AND PUSH32 0x3234040CE3BD4564874E44810F198910133A1B24C4E84AAC87EDBF6B458F5353 DUP13 PUSH1 0x40 MLOAD PUSH2 0x3CF SWAP2 SWAP1 PUSH2 0xA8D JUMP JUMPDEST DUP15 PUSH1 0x1 PUSH1 0x1 PUSH1 0xA0 SHL SUB AND PUSH1 0x1 PUSH1 0x0 DUP9 PUSH1 0x1 PUSH1 0x1 PUSH1 0xE0 SHL SUB NOT AND PUSH1 0x1 PUSH1 0x1 PUSH1 0xE0 SHL SUB NOT AND DUP2 MSTORE PUSH1 0x20 ADD SWAP1 DUP2 MSTORE PUSH1 0x20 ADD PUSH1 0x0 KECCAK256 PUSH1 0x0 SWAP1 SLOAD SWAP1 PUSH2 0x100 EXP SWAP1 DIV PUSH1 0x1 PUSH1 0x1 PUSH1 0xA0 SHL SUB AND PUSH1 0x1 PUSH1 0x1 PUSH1 0xA0 SHL SUB AND EQ PUSH2 0x63D JUMPI DUP15 PUSH1 0x1 PUSH1 0x0 DUP9 PUSH1 0x1 PUSH1 0x1 PUSH1 0xE0 SHL SUB NOT AND PUSH1 0x1 PUSH1 0x1 PUSH1 0xE0 SHL SUB NOT AND DUP2 MSTORE PUSH1 0x20 ADD SWAP1 DUP2 MSTORE PUSH1 0x20 ADD PUSH1 0x0 KECCAK256 PUSH1 0x0 PUSH2 0x100 EXP DUP2 SLOAD DUP2 PUSH1 0x1 PUSH1 0x1 PUSH1 0xA0 SHL SUB MUL NOT AND SWAP1 DUP4 PUSH1 0x1 PUSH1 0x1 PUSH1 0xA0 SHL SUB AND MUL OR SWAP1 SSTORE POP DUP15 PUSH1 0x1 PUSH1 0x1 PUSH1 0xA0 SHL SUB AND DUP6 PUSH1 0x1 PUSH1 0x1 PUSH1 0xA0 SHL SUB AND DUP8 PUSH1 0x1 PUSH1 0x1 PUSH1 0xE0 SHL SUB NOT AND PUSH32 0x3234040CE3BD4564874E44810F198910133A1B24C4E84AAC87EDBF6B458F5353 DUP13 PUSH1 0x40 MLOAD PUSH2 0x634 SWAP2 SWAP1 PUSH2 0xA8D JUMP JUMPDEST PUSH1 0x40 MLOAD DUP1 SWAP2 SUB SWAP1 LOG4 JUMPDEST SWAP8 DUP4 ADD SWAP8 JUMPDEST DUP10 PUSH2 0x64C DUP2 PUSH2 0x8DD JUMP JUMPDEST SWAP11 POP POP PUSH2 0x177 JUMP JUMPDEST PUSH32 0xAA1C0A0A78CEC2470F9652E5D29540752E7A64D70F926933CEBF13AFAEDA45DE DUP13 DUP13 PUSH1 0x40 MLOAD PUSH2 0x685 SWAP3 SWAP2 SWAP1 PUSH2 0xAC0 JUMP JUMPDEST PUSH1 0x40 MLOAD DUP1 SWAP2 SUB SWAP1 LOG1 POP POP POP POP POP POP POP POP POP POP POP POP POP POP POP JUMP JUMPDEST DUP3 DUP1 SLOAD PUSH2 0x6AA SWAP1 PUSH2 0x988 JUMP JUMPDEST SWAP1 PUSH1 0x0 MSTORE PUSH1 0x20 PUSH1 0x0 KECCAK256 SWAP1 PUSH1 0x1F ADD PUSH1 0x20 SWAP1 DIV DUP2 ADD SWAP3 DUP3 PUSH2 0x6CC JUMPI PUSH1 0x0 DUP6 SSTORE PUSH2 0x719 JUMP JUMPDEST DUP3 PUSH1 0x1F LT PUSH2 0x6DD JUMPI DUP1 SLOAD DUP6 SSTORE PUSH2 0x719 JUMP JUMPDEST DUP3 DUP1 ADD PUSH1 0x1 ADD DUP6 SSTORE DUP3 ISZERO PUSH2 0x719 JUMPI PUSH1 0x0 MSTORE PUSH1 0x20 PUSH1 0x0 KECCAK256 SWAP2 PUSH1 0x1F ADD PUSH1 0x20 SWAP1 DIV DUP3 ADD JUMPDEST DUP3 DUP2 GT ISZERO PUSH2 0x719 JUMPI DUP3 SLOAD DUP3 SSTORE SWAP2 PUSH1 0x1 ADD SWAP2 SWAP1 PUSH1 0x1 ADD SWAP1 PUSH2 0x6FE JUMP JUMPDEST POP PUSH2 0x725 SWAP3 SWAP2 POP PUSH2 0x7DA JUMP JUMPDEST POP SWAP1 JUMP JUMPDEST POP DUP1 SLOAD PUSH2 0x735 SWAP1 PUSH2 0x988 JUMP JUMPDEST PUSH1 0x0 DUP3 SSTORE DUP1 PUSH1 0x1F LT PUSH2 0x745 JUMPI POP POP JUMP JUMPDEST PUSH1 0x1F ADD PUSH1 0x20 SWAP1 DIV SWAP1 PUSH1 0x0 MSTORE PUSH1 0x20 PUSH1 0x0 KECCAK256 SWAP1 DUP2 ADD SWAP1 PUSH2 0x763 SWAP2 SWAP1 PUSH2 0x7DA JUMP JUMPDEST POP JUMP JUMPDEST DUP3 DUP1 SLOAD PUSH2 0x772 SWAP1 PUSH2 0x988 JUMP JUMPDEST SWAP1 PUSH1 0x0 MSTORE PUSH1 0x20 PUSH1 0x0 KECCAK256 SWAP1 PUSH1 0x1F ADD PUSH1 0x20 SWAP1 DIV DUP2 ADD SWAP3 DUP3 PUSH2 0x794 JUMPI PUSH1 0x0 DUP6 SSTORE PUSH2 0x719 JUMP JUMPDEST DUP3 PUSH1 0x1F LT PUSH2 0x7AD JUMPI DUP1 MLOAD PUSH1 0xFF NOT AND DUP4 DUP1 ADD OR DUP6 SSTORE PUSH2 0x719 JUMP JUMPDEST DUP3 DUP1 ADD PUSH1 0x1 ADD DUP6 SSTORE DUP3 ISZERO PUSH2 0x719 JUMPI SWAP2 DUP3 ADD JUMPDEST DUP3 DUP2 GT ISZERO PUSH2 0x719 JUMPI DUP3 MLOAD DUP3 SSTORE SWAP2 PUSH1 0x20 ADD SWAP2 SWAP1 PUSH1 0x1 ADD SWAP1 PUSH2 0x7BF JUMP JUMPDEST JUMPDEST DUP1 DUP3 GT ISZERO PUSH2 0x725 JUMPI PUSH1 0x0 DUP2 SSTORE PUSH1 0x1 ADD PUSH2 0x7DB JUMP JUMPDEST PUSH1 0x0 DUP1 DUP4 PUSH1 0x1F DUP5 ADD SLT PUSH2 0x801 JUMPI PUSH1 0x0 DUP1 REVERT JUMPDEST POP DUP2 CALLDATALOAD PUSH8 0xFFFFFFFFFFFFFFFF DUP2 GT ISZERO PUSH2 0x819 JUMPI PUSH1 0x0 DUP1 REVERT JUMPDEST PUSH1 0x20 DUP4 ADD SWAP2 POP DUP4 PUSH1 0x20 DUP3 DUP6 ADD ADD GT ISZERO PUSH2 0x831 JUMPI PUSH1 0x0 DUP1 REVERT JUMPDEST SWAP3 POP SWAP3 SWAP1 POP JUMP JUMPDEST PUSH1 0x0 DUP1 PUSH1 0x0 DUP1 PUSH1 0x0 PUSH1 0x60 DUP7 DUP9 SUB SLT ISZERO PUSH2 0x850 JUMPI PUSH1 0x0 DUP1 REVERT JUMPDEST DUP6 CALLDATALOAD PUSH1 0x1 PUSH1 0x1 PUSH1 0xA0 SHL SUB DUP2 AND DUP2 EQ PUSH2 0x867 JUMPI PUSH1 0x0 DUP1 REVERT JUMPDEST SWAP5 POP PUSH1 0x20 DUP7 ADD CALLDATALOAD PUSH8 0xFFFFFFFFFFFFFFFF DUP1 DUP3 GT ISZERO PUSH2 0x884 JUMPI PUSH1 0x0 DUP1 REVERT JUMPDEST PUSH2 0x890 DUP10 DUP4 DUP11 ADD PUSH2 0x7EF JUMP JUMPDEST SWAP1 SWAP7 POP SWAP5 POP PUSH1 0x40 DUP9 ADD CALLDATALOAD SWAP2 POP DUP1 DUP3 GT ISZERO PUSH2 0x8A9 JUMPI PUSH1 0x0 DUP1 REVERT JUMPDEST POP PUSH2 0x8B6 DUP9 DUP3 DUP10 ADD PUSH2 0x7EF JUMP JUMPDEST SWAP7 SWAP10 SWAP6 SWAP9 POP SWAP4 SWAP7 POP SWAP3 SWAP5 SWAP4 SWAP3 POP POP POP JUMP JUMPDEST PUSH4 0x4E487B71 PUSH1 0xE0 SHL PUSH1 0x0 MSTORE PUSH1 0x11 PUSH1 0x4 MSTORE PUSH1 0x24 PUSH1 0x0 REVERT JUMPDEST PUSH1 0x0 PUSH1 0x0 NOT DUP3 EQ ISZERO PUSH2 0x8F1 JUMPI PUSH2 0x8F1 PUSH2 0x8C7 JUMP JUMPDEST POP PUSH1 0x1 ADD SWAP1 JUMP JUMPDEST PUSH1 0x0 DUP3 DUP3 LT ISZERO PUSH2 0x90A JUMPI PUSH2 0x90A PUSH2 0x8C7 JUMP JUMPDEST POP SUB SWAP1 JUMP JUMPDEST PUSH1 0x0 JUMPDEST DUP4 DUP2 LT ISZERO PUSH2 0x92A JUMPI DUP2 DUP2 ADD MLOAD DUP4 DUP3 ADD MSTORE PUSH1 0x20 ADD PUSH2 0x912 JUMP JUMPDEST DUP4 DUP2 GT ISZERO PUSH2 0x939 JUMPI PUSH1 0x0 DUP5 DUP5 ADD MSTORE JUMPDEST POP POP POP POP JUMP JUMPDEST PUSH1 0x0 DUP3 MLOAD PUSH2 0x951 DUP2 DUP5 PUSH1 0x20 DUP8 ADD PUSH2 0x90F JUMP JUMPDEST SWAP2 SWAP1 SWAP2 ADD SWAP3 SWAP2 POP POP JUMP JUMPDEST PUSH1 0x0 DUP2 PUSH2 0x96A JUMPI PUSH2 0x96A PUSH2 0x8C7 JUMP JUMPDEST POP PUSH1 0x0 NOT ADD SWAP1 JUMP JUMPDEST PUSH4 0x4E487B71 PUSH1 0xE0 SHL PUSH1 0x0 MSTORE PUSH1 0x32 PUSH1 0x4 MSTORE PUSH1 0x24 PUSH1 0x0 REVERT JUMPDEST PUSH1 0x1 DUP2 DUP2 SHR SWAP1 DUP3 AND DUP1 PUSH2 0x99C JUMPI PUSH1 0x7F DUP3 AND SWAP2 POP JUMPDEST PUSH1 0x20 DUP3 LT DUP2 EQ ISZERO PUSH2 0x9BD JUMPI PUSH4 0x4E487B71 PUSH1 0xE0 SHL PUSH1 0x0 MSTORE PUSH1 0x22 PUSH1 0x4 MSTORE PUSH1 0x24 PUSH1 0x0 REVERT JUMPDEST POP SWAP2 SWAP1 POP JUMP JUMPDEST PUSH1 0x0 DUP3 NOT DUP3 GT ISZERO PUSH2 0x9D6 JUMPI PUSH2 0x9D6 PUSH2 0x8C7 JUMP JUMPDEST POP ADD SWAP1 JUMP JUMPDEST PUSH1 0x0 DUP1 DUP4 SLOAD DUP2 PUSH1 0x1 DUP3 DUP2 SHR SWAP2 POP DUP1 DUP4 AND DUP1 PUSH2 0x9F7 JUMPI PUSH1 0x7F DUP4 AND SWAP3 POP JUMPDEST PUSH1 0x20 DUP1 DUP5 LT DUP3 EQ ISZERO PUSH2 0xA17 JUMPI PUSH4 0x4E487B71 PUSH1 0xE0 SHL DUP7 MSTORE PUSH1 0x22 PUSH1 0x4 MSTORE PUSH1 0x24 DUP7 REVERT JUMPDEST DUP2 DUP1 ISZERO PUSH2 0xA2B JUMPI PUSH1 0x1 DUP2 EQ PUSH2 0xA3C JUMPI PUSH2 0xA69 JUMP JUMPDEST PUSH1 0xFF NOT DUP7 AND DUP10 MSTORE DUP5 DUP10 ADD SWAP7 POP PUSH2 0xA69 JUMP JUMPDEST PUSH1 0x0 DUP11 DUP2 MSTORE PUSH1 0x20 SWAP1 KECCAK256 PUSH1 0x0 JUMPDEST DUP7 DUP2 LT ISZERO PUSH2 0xA61 JUMPI DUP2 SLOAD DUP12 DUP3 ADD MSTORE SWAP1 DUP6 ADD SWAP1 DUP4 ADD PUSH2 0xA48 JUMP JUMPDEST POP POP DUP5 DUP10 ADD SWAP7 POP JUMPDEST POP SWAP5 SWAP9 SWAP8 POP POP POP POP POP POP POP POP JUMP JUMPDEST PUSH4 0x4E487B71 PUSH1 0xE0 SHL PUSH1 0x0 MSTORE PUSH1 0x31 PUSH1 0x4 MSTORE PUSH1 0x24 PUSH1 0x0 REVERT JUMPDEST PUSH1 0x20 DUP2 MSTORE PUSH1 0x0 DUP3 MLOAD DUP1 PUSH1 0x20 DUP5 ADD MSTORE PUSH2 0xAAC DUP2 PUSH1 0x40 DUP6 ADD PUSH1 0x20 DUP8 ADD PUSH2 0x90F JUMP JUMPDEST PUSH1 0x1F ADD PUSH1 0x1F NOT AND SWAP2 SWAP1 SWAP2 ADD PUSH1 0x40 ADD SWAP3 SWAP2 POP POP JUMP JUMPDEST PUSH1 0x20 DUP2 MSTORE DUP2 PUSH1 0x20 DUP3 ADD MSTORE DUP2 DUP4 PUSH1 0x40 DUP4 ADD CALLDATACOPY PUSH1 0x0 DUP2 DUP4 ADD PUSH1 0x40 SWAP1 DUP2 ADD SWAP2 SWAP1 SWAP2 MSTORE PUSH1 0x1F SWAP1 SWAP3 ADD PUSH1 0x1F NOT AND ADD ADD SWAP2 SWAP1 POP JUMP INVALID LOG2 PUSH5 0x6970667358 0x22 SLT KECCAK256 SIGNEXTEND 0xD SMOD DUP2 0x2A 0x22 PUSH29 0x3FB6ACE87195663CB783AEC878748F24F348CBF0FE4412772E64736F6C PUSH4 0x43000809 STOP CALLER "
		},
		"gasEstimates": {
			"creation": {
				"codeDepositCost": "570600",
				"executionCost": "606",
				"totalCost": "571206"
			},
			"external": {
				"updateContract(address,string,string)": "infinite"
			}
		},
		"methodIdentifiers": {
			"updateContract(address,string,string)": "61455567"
		}
	},
	"abi": [
		{
			"anonymous": false,
			"inputs": [
				{
					"indexed": false,
					"internalType": "string",
					"name": "message",
					"type": "string"
				}
			],
			"name": "CommitMessage",
			"type": "event"
		},
		{
			"anonymous": false,
			"inputs": [
				{
					"indexed": true,
					"internalType": "bytes4",
					"name": "functionId",
					"type": "bytes4"
				},
				{
					"indexed": true,
					"internalType": "address",
					"name": "oldDelegate",
					"type": "address"
				},
				{
					"indexed": true,
					"internalType": "address",
					"name": "newDelegate",
					"type": "address"
				},
				{
					"indexed": false,
					"internalType": "string",
					"name": "functionSignature",
					"type": "string"
				}
			],
			"name": "FunctionUpdate",
			"type": "event"
		},
		{
			"inputs": [
				{
					"internalType": "address",
					"name": "_delegate",
					"type": "address"
				},
				{
					"internalType": "string",
					"name": "_functionSignatures",
					"type": "string"
				},
				{
					"internalType": "string",
					"name": "_commitMessage",
					"type": "string"
				}
			],
			"name": "updateContract",
			"outputs": [],
			"stateMutability": "nonpayable",
			"type": "function"
		}
	]
}