{
	"data": {
		"bytecode": {
			"linkReferences": {},
			"object": "608060405234801561001057600080fd5b5060f58061001f6000396000f3fe6080604052348015600f57600080fd5b506004361060285760003560e01c8063b7b0422d14602d575b600080fd5b603c603836600460a7565b603e565b005b6004541560a25760405162461bcd60e51b815260206004820152602860248201527f6c6f63616c20756e6976657273652076616c756520616c726561647920696e696044820152671d1a585b1a5e995960c21b606482015260840160405180910390fd5b600455565b60006020828403121560b857600080fd5b503591905056fea264697066735822122084721914d30882c3c4a939870f4aa49a9e75a876a6a8aa9fc66634de0a265db664736f6c63430008090033",
			"opcodes": "PUSH1 0x80 PUSH1 0x40 MSTORE CALLVALUE DUP1 ISZERO PUSH2 0x10 JUMPI PUSH1 0x0 DUP1 REVERT JUMPDEST POP PUSH1 0xF5 DUP1 PUSH2 0x1F PUSH1 0x0 CODECOPY PUSH1 0x0 RETURN INVALID PUSH1 0x80 PUSH1 0x40 MSTORE CALLVALUE DUP1 ISZERO PUSH1 0xF JUMPI PUSH1 0x0 DUP1 REVERT JUMPDEST POP PUSH1 0x4 CALLDATASIZE LT PUSH1 0x28 JUMPI PUSH1 0x0 CALLDATALOAD PUSH1 0xE0 SHR DUP1 PUSH4 0xB7B0422D EQ PUSH1 0x2D JUMPI JUMPDEST PUSH1 0x0 DUP1 REVERT JUMPDEST PUSH1 0x3C PUSH1 0x38 CALLDATASIZE PUSH1 0x4 PUSH1 0xA7 JUMP JUMPDEST PUSH1 0x3E JUMP JUMPDEST STOP JUMPDEST PUSH1 0x4 SLOAD ISZERO PUSH1 0xA2 JUMPI PUSH1 0x40 MLOAD PUSH3 0x461BCD PUSH1 0xE5 SHL DUP2 MSTORE PUSH1 0x20 PUSH1 0x4 DUP3 ADD MSTORE PUSH1 0x28 PUSH1 0x24 DUP3 ADD MSTORE PUSH32 0x6C6F63616C20756E6976657273652076616C756520616C726561647920696E69 PUSH1 0x44 DUP3 ADD MSTORE PUSH8 0x1D1A585B1A5E9959 PUSH1 0xC2 SHL PUSH1 0x64 DUP3 ADD MSTORE PUSH1 0x84 ADD PUSH1 0x40 MLOAD DUP1 SWAP2 SUB SWAP1 REVERT JUMPDEST PUSH1 0x4 SSTORE JUMP JUMPDEST PUSH1 0x0 PUSH1 0x20 DUP3 DUP5 SUB SLT ISZERO PUSH1 0xB8 JUMPI PUSH1 0x0 DUP1 REVERT JUMPDEST POP CALLDATALOAD SWAP2 SWAP1 POP JUMP INVALID LOG2 PUSH5 0x6970667358 0x22 SLT KECCAK256 DUP5 PUSH19 0x1914D30882C3C4A939870F4AA49A9E75A876A6 0xA8 0xAA SWAP16 0xC6 PUSH7 0x34DE0A265DB664 PUSH20 0x6F6C634300080900330000000000000000000000 "
		},
		"gasEstimates": {
			"creation": {
				"codeDepositCost": "49000",
				"executionCost": "99",
				"totalCost": "49099"
			},
			"external": {
				"init(uint256)": "24422"
			}
		},
		"methodIdentifiers": {
			"init(uint256)": "b7b0422d"
		}
	},
	"abi": [
		{
			"inputs": [
				{
					"internalType": "uint256",
					"name": "_localUniverse",
					"type": "uint256"
				}
			],
			"name": "init",
			"outputs": [],
			"stateMutability": "nonpayable",
			"type": "function"
		}
	]
}