{
	"data": {
		"bytecode": {
			"linkReferences": {},
			"object": "608060405234801561001057600080fd5b50610e42806100206000396000f3fe608060405234801561001057600080fd5b50600436106100885760003560e01c8063d0c1d38b1161005b578063d0c1d38b1461012a578063ea841b471461013f578063ece34ef914610152578063f57dc6501461016557600080fd5b80630eb55f081461008d5780634e641890146100b35780635ceb78e1146100f4578063c25b0c0914610117575b600080fd5b6100a061009b366004610b6a565b610178565b6040519081526020015b60405180910390f35b6100e46100c1366004610c08565b505050506001600160a01b031660009081526008602052604090205460ff161590565b60405190151581526020016100aa565b6100e4610102366004610c4c565b60009081526005602052604090205460ff1690565b6100a0610125366004610b6a565b6101c8565b61013d610138366004610c65565b610207565b005b61013d61014d366004610c65565b6105f0565b6100e4610160366004610c08565b610937565b6100a0610173366004610c4c565b6109e9565b60006101b760008e8e6001600160a01b031660001b8e6001600160a01b031660001b8e60001b8e6001600160a01b031660001b8e8e8e8e8e8e8e610a83565b9d9c50505050505050505050505050565b60006101b760018e8e6001600160a01b031660001b8e6001600160a01b031660001b8e60001b8e6001600160a01b031660001b8e8e8e8e8e8e8e610a83565b6040516331a9108f60e11b8152600481018890526000906001600160a01b038a1690636352211e9060240160206040518083038186803b15801561024a57600080fd5b505afa15801561025e573d6000803e3d6000fd5b505050506040513d601f19601f820116820180604052508101906102829190610cc3565b9050336001600160a01b0382161480610315575060405163e985e9c560e01b81526001600160a01b0382811660048301523360248301528a169063e985e9c59060440160206040518083038186803b1580156102dd57600080fd5b505afa1580156102f1573d6000803e3d6000fd5b505050506040513d601f19601f820116820180604052508101906103159190610ce7565b806103a8575060405163020604bf60e21b8152600481018990526001600160a01b038a169063081812fc9060240160206040518083038186803b15801561035b57600080fd5b505afa15801561036f573d6000803e3d6000fd5b505050506040513d601f19601f820116820180604052508101906103939190610cc3565b6001600160a01b0316336001600160a01b0316145b6103cd5760405162461bcd60e51b81526004016103c490610d09565b60405180910390fd5b6001600160a01b0389811660008181526009602052604090819020549051636e62d79f60e11b81526004810192909252602482018b9052604482018a905260648201889052608482018790529091169063dcc5af3e9060a40160206040518083038186803b15801561043e57600080fd5b505afa158015610452573d6000803e3d6000fd5b505050506040513d601f19601f820116820180604052508101906104769190610ce7565b6104e15760405162461bcd60e51b815260206004820152603660248201527f54686973206d6967726174696f6e206973206e6f742061636365707461626c65604482015275103337b9103a3432903a37b5b2b71031b932b0ba37b960511b60648201526084016103c4565b60006104f48a8a848b8b8b8b8b8b610b1a565b60008181526005602052604090205490915060ff16156105265760405162461bcd60e51b81526004016103c490610d8c565b6000818152600560209081526040808320805460ff191660011790555160608d901b6bffffffffffffffffffffffff191691810191909152603481018b905282916006916054016040516020818303038152906040528051906020012081526020019081526020016000208190555080898b6001600160a01b03167feb78a8cd340dff39adb4d64de555452d737620215820c5c38c6985eb500f1063858c8c8c8c8c8c6040516105dc9796959493929190610dd1565b60405180910390a450505050505050505050565b6040516331a9108f60e11b8152600481018890526000906001600160a01b038a1690636352211e9060240160206040518083038186803b15801561063357600080fd5b505afa158015610647573d6000803e3d6000fd5b505050506040513d601f19601f8201168201806040525081019061066b9190610cc3565b9050336001600160a01b03821614806106fe575060405163e985e9c560e01b81526001600160a01b0382811660048301523360248301528a169063e985e9c59060440160206040518083038186803b1580156106c657600080fd5b505afa1580156106da573d6000803e3d6000fd5b505050506040513d601f19601f820116820180604052508101906106fe9190610ce7565b80610791575060405163020604bf60e21b8152600481018990526001600160a01b038a169063081812fc9060240160206040518083038186803b15801561074457600080fd5b505afa158015610758573d6000803e3d6000fd5b505050506040513d601f19601f8201168201806040525081019061077c9190610cc3565b6001600160a01b0316336001600160a01b0316145b6107ad5760405162461bcd60e51b81526004016103c490610d09565b6001600160a01b03891660009081526008602052604090205460ff161561083c5760405162461bcd60e51b815260206004820152603e60248201527f54686520746f6b656e2063726561746f72206861766520666f7262696464656e60448201527f20494f55206d6967726174696f6e7320666f72207468697320776f726c64000060648201526084016103c4565b600061084f8a8a848b8b8b8b8b8b610b1a565b60008181526005602052604090205490915060ff16156108815760405162461bcd60e51b81526004016103c490610d8c565b6000818152600560209081526040808320805460ff191660011790555160608d901b6bffffffffffffffffffffffff191691810191909152603481018b905282916006916054016040516020818303038152906040528051906020012081526020019081526020016000208190555080898b6001600160a01b03167ffa90ed0aaa999d2cb82691a60b10f4a8f6543965f9073af93d8e0af64ed1a08d858c8c8c8c8c8c6040516105dc9796959493929190610dd1565b6001600160a01b03858116600081815260096020526040808220549051636e62d79f60e11b81526004810193909352602483018890526044830187905260648301869052608483018590529092169063dcc5af3e9060a40160206040518083038186803b1580156109a757600080fd5b505afa1580156109bb573d6000803e3d6000fd5b505050506040513d601f19601f820116820180604052508101906109df9190610ce7565b9695505050505050565b60008181526007602052604081205480610a7d5760405162461bcd60e51b815260206004820152604960248201527f54686520746f6b656e206173736f63696174656420776974682074686973206d60448201527f6967726174696f6e20686173682068617665206e6f74206265656e206465706f6064820152681cda5d1959081e595d60ba1b608482015260a4016103c4565b92915050565b6040518d151560f81b6020820152602181018d9052604181018c9052606181018b9052608181018a905260a1810189905260c1810188905260e18101879052610101810186905261012181018590526101418101849052610161810183905261018181018290526000906101a1016040516020818303038152906040528051906020012090509d9c50505050505050505050505050565b600454600090610b4490600190306001600160a01b038e8116908e908e168d8d8d8d8d8d42610a83565b9a9950505050505050505050565b6001600160a01b0381168114610b6757600080fd5b50565b6000806000806000806000806000806000806101808d8f031215610b8d57600080fd5b8c359b5060208d0135610b9f81610b52565b9a5060408d0135610baf81610b52565b995060608d0135985060808d0135610bc681610b52565b9b9e9a9d50989b979a9960a0890135995060c08901359860e0810135985061010081013597506101208101359650610140810135955061016001359350915050565b600080600080600060a08688031215610c2057600080fd5b8535610c2b81610b52565b97602087013597506040870135966060810135965060800135945092505050565b600060208284031215610c5e57600080fd5b5035919050565b600080600080600080600080610100898b031215610c8257600080fd5b8835610c8d81610b52565b9a60208a01359a5060408a013599606081013599506080810135985060a0810135975060c0810135965060e00135945092505050565b600060208284031215610cd557600080fd5b8151610ce081610b52565b9392505050565b600060208284031215610cf957600080fd5b81518015158114610ce057600080fd5b60208082526057908201527f6d73672e73656e646572206973206e6f742074686520746f6b656e206f776e6560408201527f722c20616e206f70657261746f722c206f72207468652061636372656469746560608201527f64206164647265737320666f722074686520746f6b656e000000000000000000608082015260a00190565b60208082526025908201527f54686973206d6967726174696f6e2077617320616c72656164792072656769736040820152641d195c995960da1b606082015260800190565b6001600160a01b03979097168752602087019590955260408601939093526060850191909152608084015260a083015260c082015260e0019056fea26469706673582212206538947619842d1b69fff086348240f1edde885cc6ec218e7fc7ec02ac69369164736f6c63430008090033",
			"opcodes": "PUSH1 0x80 PUSH1 0x40 MSTORE CALLVALUE DUP1 ISZERO PUSH2 0x10 JUMPI PUSH1 0x0 DUP1 REVERT JUMPDEST POP PUSH2 0xE42 DUP1 PUSH2 0x20 PUSH1 0x0 CODECOPY PUSH1 0x0 RETURN INVALID PUSH1 0x80 PUSH1 0x40 MSTORE CALLVALUE DUP1 ISZERO PUSH2 0x10 JUMPI PUSH1 0x0 DUP1 REVERT JUMPDEST POP PUSH1 0x4 CALLDATASIZE LT PUSH2 0x88 JUMPI PUSH1 0x0 CALLDATALOAD PUSH1 0xE0 SHR DUP1 PUSH4 0xD0C1D38B GT PUSH2 0x5B JUMPI DUP1 PUSH4 0xD0C1D38B EQ PUSH2 0x12A JUMPI DUP1 PUSH4 0xEA841B47 EQ PUSH2 0x13F JUMPI DUP1 PUSH4 0xECE34EF9 EQ PUSH2 0x152 JUMPI DUP1 PUSH4 0xF57DC650 EQ PUSH2 0x165 JUMPI PUSH1 0x0 DUP1 REVERT JUMPDEST DUP1 PUSH4 0xEB55F08 EQ PUSH2 0x8D JUMPI DUP1 PUSH4 0x4E641890 EQ PUSH2 0xB3 JUMPI DUP1 PUSH4 0x5CEB78E1 EQ PUSH2 0xF4 JUMPI DUP1 PUSH4 0xC25B0C09 EQ PUSH2 0x117 JUMPI JUMPDEST PUSH1 0x0 DUP1 REVERT JUMPDEST PUSH2 0xA0 PUSH2 0x9B CALLDATASIZE PUSH1 0x4 PUSH2 0xB6A JUMP JUMPDEST PUSH2 0x178 JUMP JUMPDEST PUSH1 0x40 MLOAD SWAP1 DUP2 MSTORE PUSH1 0x20 ADD JUMPDEST PUSH1 0x40 MLOAD DUP1 SWAP2 SUB SWAP1 RETURN JUMPDEST PUSH2 0xE4 PUSH2 0xC1 CALLDATASIZE PUSH1 0x4 PUSH2 0xC08 JUMP JUMPDEST POP POP POP POP PUSH1 0x1 PUSH1 0x1 PUSH1 0xA0 SHL SUB AND PUSH1 0x0 SWAP1 DUP2 MSTORE PUSH1 0x8 PUSH1 0x20 MSTORE PUSH1 0x40 SWAP1 KECCAK256 SLOAD PUSH1 0xFF AND ISZERO SWAP1 JUMP JUMPDEST PUSH1 0x40 MLOAD SWAP1 ISZERO ISZERO DUP2 MSTORE PUSH1 0x20 ADD PUSH2 0xAA JUMP JUMPDEST PUSH2 0xE4 PUSH2 0x102 CALLDATASIZE PUSH1 0x4 PUSH2 0xC4C JUMP JUMPDEST PUSH1 0x0 SWAP1 DUP2 MSTORE PUSH1 0x5 PUSH1 0x20 MSTORE PUSH1 0x40 SWAP1 KECCAK256 SLOAD PUSH1 0xFF AND SWAP1 JUMP JUMPDEST PUSH2 0xA0 PUSH2 0x125 CALLDATASIZE PUSH1 0x4 PUSH2 0xB6A JUMP JUMPDEST PUSH2 0x1C8 JUMP JUMPDEST PUSH2 0x13D PUSH2 0x138 CALLDATASIZE PUSH1 0x4 PUSH2 0xC65 JUMP JUMPDEST PUSH2 0x207 JUMP JUMPDEST STOP JUMPDEST PUSH2 0x13D PUSH2 0x14D CALLDATASIZE PUSH1 0x4 PUSH2 0xC65 JUMP JUMPDEST PUSH2 0x5F0 JUMP JUMPDEST PUSH2 0xE4 PUSH2 0x160 CALLDATASIZE PUSH1 0x4 PUSH2 0xC08 JUMP JUMPDEST PUSH2 0x937 JUMP JUMPDEST PUSH2 0xA0 PUSH2 0x173 CALLDATASIZE PUSH1 0x4 PUSH2 0xC4C JUMP JUMPDEST PUSH2 0x9E9 JUMP JUMPDEST PUSH1 0x0 PUSH2 0x1B7 PUSH1 0x0 DUP15 DUP15 PUSH1 0x1 PUSH1 0x1 PUSH1 0xA0 SHL SUB AND PUSH1 0x0 SHL DUP15 PUSH1 0x1 PUSH1 0x1 PUSH1 0xA0 SHL SUB AND PUSH1 0x0 SHL DUP15 PUSH1 0x0 SHL DUP15 PUSH1 0x1 PUSH1 0x1 PUSH1 0xA0 SHL SUB AND PUSH1 0x0 SHL DUP15 DUP15 DUP15 DUP15 DUP15 DUP15 DUP15 PUSH2 0xA83 JUMP JUMPDEST SWAP14 SWAP13 POP POP POP POP POP POP POP POP POP POP POP POP POP JUMP JUMPDEST PUSH1 0x0 PUSH2 0x1B7 PUSH1 0x1 DUP15 DUP15 PUSH1 0x1 PUSH1 0x1 PUSH1 0xA0 SHL SUB AND PUSH1 0x0 SHL DUP15 PUSH1 0x1 PUSH1 0x1 PUSH1 0xA0 SHL SUB AND PUSH1 0x0 SHL DUP15 PUSH1 0x0 SHL DUP15 PUSH1 0x1 PUSH1 0x1 PUSH1 0xA0 SHL SUB AND PUSH1 0x0 SHL DUP15 DUP15 DUP15 DUP15 DUP15 DUP15 DUP15 PUSH2 0xA83 JUMP JUMPDEST PUSH1 0x40 MLOAD PUSH4 0x31A9108F PUSH1 0xE1 SHL DUP2 MSTORE PUSH1 0x4 DUP2 ADD DUP9 SWAP1 MSTORE PUSH1 0x0 SWAP1 PUSH1 0x1 PUSH1 0x1 PUSH1 0xA0 SHL SUB DUP11 AND SWAP1 PUSH4 0x6352211E SWAP1 PUSH1 0x24 ADD PUSH1 0x20 PUSH1 0x40 MLOAD DUP1 DUP4 SUB DUP2 DUP7 DUP1 EXTCODESIZE ISZERO DUP1 ISZERO PUSH2 0x24A JUMPI PUSH1 0x0 DUP1 REVERT JUMPDEST POP GAS STATICCALL ISZERO DUP1 ISZERO PUSH2 0x25E JUMPI RETURNDATASIZE PUSH1 0x0 DUP1 RETURNDATACOPY RETURNDATASIZE PUSH1 0x0 REVERT JUMPDEST POP POP POP POP PUSH1 0x40 MLOAD RETURNDATASIZE PUSH1 0x1F NOT PUSH1 0x1F DUP3 ADD AND DUP3 ADD DUP1 PUSH1 0x40 MSTORE POP DUP2 ADD SWAP1 PUSH2 0x282 SWAP2 SWAP1 PUSH2 0xCC3 JUMP JUMPDEST SWAP1 POP CALLER PUSH1 0x1 PUSH1 0x1 PUSH1 0xA0 SHL SUB DUP3 AND EQ DUP1 PUSH2 0x315 JUMPI POP PUSH1 0x40 MLOAD PUSH4 0xE985E9C5 PUSH1 0xE0 SHL DUP2 MSTORE PUSH1 0x1 PUSH1 0x1 PUSH1 0xA0 SHL SUB DUP3 DUP2 AND PUSH1 0x4 DUP4 ADD MSTORE CALLER PUSH1 0x24 DUP4 ADD MSTORE DUP11 AND SWAP1 PUSH4 0xE985E9C5 SWAP1 PUSH1 0x44 ADD PUSH1 0x20 PUSH1 0x40 MLOAD DUP1 DUP4 SUB DUP2 DUP7 DUP1 EXTCODESIZE ISZERO DUP1 ISZERO PUSH2 0x2DD JUMPI PUSH1 0x0 DUP1 REVERT JUMPDEST POP GAS STATICCALL ISZERO DUP1 ISZERO PUSH2 0x2F1 JUMPI RETURNDATASIZE PUSH1 0x0 DUP1 RETURNDATACOPY RETURNDATASIZE PUSH1 0x0 REVERT JUMPDEST POP POP POP POP PUSH1 0x40 MLOAD RETURNDATASIZE PUSH1 0x1F NOT PUSH1 0x1F DUP3 ADD AND DUP3 ADD DUP1 PUSH1 0x40 MSTORE POP DUP2 ADD SWAP1 PUSH2 0x315 SWAP2 SWAP1 PUSH2 0xCE7 JUMP JUMPDEST DUP1 PUSH2 0x3A8 JUMPI POP PUSH1 0x40 MLOAD PUSH4 0x20604BF PUSH1 0xE2 SHL DUP2 MSTORE PUSH1 0x4 DUP2 ADD DUP10 SWAP1 MSTORE PUSH1 0x1 PUSH1 0x1 PUSH1 0xA0 SHL SUB DUP11 AND SWAP1 PUSH4 0x81812FC SWAP1 PUSH1 0x24 ADD PUSH1 0x20 PUSH1 0x40 MLOAD DUP1 DUP4 SUB DUP2 DUP7 DUP1 EXTCODESIZE ISZERO DUP1 ISZERO PUSH2 0x35B JUMPI PUSH1 0x0 DUP1 REVERT JUMPDEST POP GAS STATICCALL ISZERO DUP1 ISZERO PUSH2 0x36F JUMPI RETURNDATASIZE PUSH1 0x0 DUP1 RETURNDATACOPY RETURNDATASIZE PUSH1 0x0 REVERT JUMPDEST POP POP POP POP PUSH1 0x40 MLOAD RETURNDATASIZE PUSH1 0x1F NOT PUSH1 0x1F DUP3 ADD AND DUP3 ADD DUP1 PUSH1 0x40 MSTORE POP DUP2 ADD SWAP1 PUSH2 0x393 SWAP2 SWAP1 PUSH2 0xCC3 JUMP JUMPDEST PUSH1 0x1 PUSH1 0x1 PUSH1 0xA0 SHL SUB AND CALLER PUSH1 0x1 PUSH1 0x1 PUSH1 0xA0 SHL SUB AND EQ JUMPDEST PUSH2 0x3CD JUMPI PUSH1 0x40 MLOAD PUSH3 0x461BCD PUSH1 0xE5 SHL DUP2 MSTORE PUSH1 0x4 ADD PUSH2 0x3C4 SWAP1 PUSH2 0xD09 JUMP JUMPDEST PUSH1 0x40 MLOAD DUP1 SWAP2 SUB SWAP1 REVERT JUMPDEST PUSH1 0x1 PUSH1 0x1 PUSH1 0xA0 SHL SUB DUP10 DUP2 AND PUSH1 0x0 DUP2 DUP2 MSTORE PUSH1 0x9 PUSH1 0x20 MSTORE PUSH1 0x40 SWAP1 DUP2 SWAP1 KECCAK256 SLOAD SWAP1 MLOAD PUSH4 0x6E62D79F PUSH1 0xE1 SHL DUP2 MSTORE PUSH1 0x4 DUP2 ADD SWAP3 SWAP1 SWAP3 MSTORE PUSH1 0x24 DUP3 ADD DUP12 SWAP1 MSTORE PUSH1 0x44 DUP3 ADD DUP11 SWAP1 MSTORE PUSH1 0x64 DUP3 ADD DUP9 SWAP1 MSTORE PUSH1 0x84 DUP3 ADD DUP8 SWAP1 MSTORE SWAP1 SWAP2 AND SWAP1 PUSH4 0xDCC5AF3E SWAP1 PUSH1 0xA4 ADD PUSH1 0x20 PUSH1 0x40 MLOAD DUP1 DUP4 SUB DUP2 DUP7 DUP1 EXTCODESIZE ISZERO DUP1 ISZERO PUSH2 0x43E JUMPI PUSH1 0x0 DUP1 REVERT JUMPDEST POP GAS STATICCALL ISZERO DUP1 ISZERO PUSH2 0x452 JUMPI RETURNDATASIZE PUSH1 0x0 DUP1 RETURNDATACOPY RETURNDATASIZE PUSH1 0x0 REVERT JUMPDEST POP POP POP POP PUSH1 0x40 MLOAD RETURNDATASIZE PUSH1 0x1F NOT PUSH1 0x1F DUP3 ADD AND DUP3 ADD DUP1 PUSH1 0x40 MSTORE POP DUP2 ADD SWAP1 PUSH2 0x476 SWAP2 SWAP1 PUSH2 0xCE7 JUMP JUMPDEST PUSH2 0x4E1 JUMPI PUSH1 0x40 MLOAD PUSH3 0x461BCD PUSH1 0xE5 SHL DUP2 MSTORE PUSH1 0x20 PUSH1 0x4 DUP3 ADD MSTORE PUSH1 0x36 PUSH1 0x24 DUP3 ADD MSTORE PUSH32 0x54686973206D6967726174696F6E206973206E6F742061636365707461626C65 PUSH1 0x44 DUP3 ADD MSTORE PUSH22 0x103337B9103A3432903A37B5B2B71031B932B0BA37B9 PUSH1 0x51 SHL PUSH1 0x64 DUP3 ADD MSTORE PUSH1 0x84 ADD PUSH2 0x3C4 JUMP JUMPDEST PUSH1 0x0 PUSH2 0x4F4 DUP11 DUP11 DUP5 DUP12 DUP12 DUP12 DUP12 DUP12 DUP12 PUSH2 0xB1A JUMP JUMPDEST PUSH1 0x0 DUP2 DUP2 MSTORE PUSH1 0x5 PUSH1 0x20 MSTORE PUSH1 0x40 SWAP1 KECCAK256 SLOAD SWAP1 SWAP2 POP PUSH1 0xFF AND ISZERO PUSH2 0x526 JUMPI PUSH1 0x40 MLOAD PUSH3 0x461BCD PUSH1 0xE5 SHL DUP2 MSTORE PUSH1 0x4 ADD PUSH2 0x3C4 SWAP1 PUSH2 0xD8C JUMP JUMPDEST PUSH1 0x0 DUP2 DUP2 MSTORE PUSH1 0x5 PUSH1 0x20 SWAP1 DUP2 MSTORE PUSH1 0x40 DUP1 DUP4 KECCAK256 DUP1 SLOAD PUSH1 0xFF NOT AND PUSH1 0x1 OR SWAP1 SSTORE MLOAD PUSH1 0x60 DUP14 SWAP1 SHL PUSH12 0xFFFFFFFFFFFFFFFFFFFFFFFF NOT AND SWAP2 DUP2 ADD SWAP2 SWAP1 SWAP2 MSTORE PUSH1 0x34 DUP2 ADD DUP12 SWAP1 MSTORE DUP3 SWAP2 PUSH1 0x6 SWAP2 PUSH1 0x54 ADD PUSH1 0x40 MLOAD PUSH1 0x20 DUP2 DUP4 SUB SUB DUP2 MSTORE SWAP1 PUSH1 0x40 MSTORE DUP1 MLOAD SWAP1 PUSH1 0x20 ADD KECCAK256 DUP2 MSTORE PUSH1 0x20 ADD SWAP1 DUP2 MSTORE PUSH1 0x20 ADD PUSH1 0x0 KECCAK256 DUP2 SWAP1 SSTORE POP DUP1 DUP10 DUP12 PUSH1 0x1 PUSH1 0x1 PUSH1 0xA0 SHL SUB AND PUSH32 0xEB78A8CD340DFF39ADB4D64DE555452D737620215820C5C38C6985EB500F1063 DUP6 DUP13 DUP13 DUP13 DUP13 DUP13 DUP13 PUSH1 0x40 MLOAD PUSH2 0x5DC SWAP8 SWAP7 SWAP6 SWAP5 SWAP4 SWAP3 SWAP2 SWAP1 PUSH2 0xDD1 JUMP JUMPDEST PUSH1 0x40 MLOAD DUP1 SWAP2 SUB SWAP1 LOG4 POP POP POP POP POP POP POP POP POP POP JUMP JUMPDEST PUSH1 0x40 MLOAD PUSH4 0x31A9108F PUSH1 0xE1 SHL DUP2 MSTORE PUSH1 0x4 DUP2 ADD DUP9 SWAP1 MSTORE PUSH1 0x0 SWAP1 PUSH1 0x1 PUSH1 0x1 PUSH1 0xA0 SHL SUB DUP11 AND SWAP1 PUSH4 0x6352211E SWAP1 PUSH1 0x24 ADD PUSH1 0x20 PUSH1 0x40 MLOAD DUP1 DUP4 SUB DUP2 DUP7 DUP1 EXTCODESIZE ISZERO DUP1 ISZERO PUSH2 0x633 JUMPI PUSH1 0x0 DUP1 REVERT JUMPDEST POP GAS STATICCALL ISZERO DUP1 ISZERO PUSH2 0x647 JUMPI RETURNDATASIZE PUSH1 0x0 DUP1 RETURNDATACOPY RETURNDATASIZE PUSH1 0x0 REVERT JUMPDEST POP POP POP POP PUSH1 0x40 MLOAD RETURNDATASIZE PUSH1 0x1F NOT PUSH1 0x1F DUP3 ADD AND DUP3 ADD DUP1 PUSH1 0x40 MSTORE POP DUP2 ADD SWAP1 PUSH2 0x66B SWAP2 SWAP1 PUSH2 0xCC3 JUMP JUMPDEST SWAP1 POP CALLER PUSH1 0x1 PUSH1 0x1 PUSH1 0xA0 SHL SUB DUP3 AND EQ DUP1 PUSH2 0x6FE JUMPI POP PUSH1 0x40 MLOAD PUSH4 0xE985E9C5 PUSH1 0xE0 SHL DUP2 MSTORE PUSH1 0x1 PUSH1 0x1 PUSH1 0xA0 SHL SUB DUP3 DUP2 AND PUSH1 0x4 DUP4 ADD MSTORE CALLER PUSH1 0x24 DUP4 ADD MSTORE DUP11 AND SWAP1 PUSH4 0xE985E9C5 SWAP1 PUSH1 0x44 ADD PUSH1 0x20 PUSH1 0x40 MLOAD DUP1 DUP4 SUB DUP2 DUP7 DUP1 EXTCODESIZE ISZERO DUP1 ISZERO PUSH2 0x6C6 JUMPI PUSH1 0x0 DUP1 REVERT JUMPDEST POP GAS STATICCALL ISZERO DUP1 ISZERO PUSH2 0x6DA JUMPI RETURNDATASIZE PUSH1 0x0 DUP1 RETURNDATACOPY RETURNDATASIZE PUSH1 0x0 REVERT JUMPDEST POP POP POP POP PUSH1 0x40 MLOAD RETURNDATASIZE PUSH1 0x1F NOT PUSH1 0x1F DUP3 ADD AND DUP3 ADD DUP1 PUSH1 0x40 MSTORE POP DUP2 ADD SWAP1 PUSH2 0x6FE SWAP2 SWAP1 PUSH2 0xCE7 JUMP JUMPDEST DUP1 PUSH2 0x791 JUMPI POP PUSH1 0x40 MLOAD PUSH4 0x20604BF PUSH1 0xE2 SHL DUP2 MSTORE PUSH1 0x4 DUP2 ADD DUP10 SWAP1 MSTORE PUSH1 0x1 PUSH1 0x1 PUSH1 0xA0 SHL SUB DUP11 AND SWAP1 PUSH4 0x81812FC SWAP1 PUSH1 0x24 ADD PUSH1 0x20 PUSH1 0x40 MLOAD DUP1 DUP4 SUB DUP2 DUP7 DUP1 EXTCODESIZE ISZERO DUP1 ISZERO PUSH2 0x744 JUMPI PUSH1 0x0 DUP1 REVERT JUMPDEST POP GAS STATICCALL ISZERO DUP1 ISZERO PUSH2 0x758 JUMPI RETURNDATASIZE PUSH1 0x0 DUP1 RETURNDATACOPY RETURNDATASIZE PUSH1 0x0 REVERT JUMPDEST POP POP POP POP PUSH1 0x40 MLOAD RETURNDATASIZE PUSH1 0x1F NOT PUSH1 0x1F DUP3 ADD AND DUP3 ADD DUP1 PUSH1 0x40 MSTORE POP DUP2 ADD SWAP1 PUSH2 0x77C SWAP2 SWAP1 PUSH2 0xCC3 JUMP JUMPDEST PUSH1 0x1 PUSH1 0x1 PUSH1 0xA0 SHL SUB AND CALLER PUSH1 0x1 PUSH1 0x1 PUSH1 0xA0 SHL SUB AND EQ JUMPDEST PUSH2 0x7AD JUMPI PUSH1 0x40 MLOAD PUSH3 0x461BCD PUSH1 0xE5 SHL DUP2 MSTORE PUSH1 0x4 ADD PUSH2 0x3C4 SWAP1 PUSH2 0xD09 JUMP JUMPDEST PUSH1 0x1 PUSH1 0x1 PUSH1 0xA0 SHL SUB DUP10 AND PUSH1 0x0 SWAP1 DUP2 MSTORE PUSH1 0x8 PUSH1 0x20 MSTORE PUSH1 0x40 SWAP1 KECCAK256 SLOAD PUSH1 0xFF AND ISZERO PUSH2 0x83C JUMPI PUSH1 0x40 MLOAD PUSH3 0x461BCD PUSH1 0xE5 SHL DUP2 MSTORE PUSH1 0x20 PUSH1 0x4 DUP3 ADD MSTORE PUSH1 0x3E PUSH1 0x24 DUP3 ADD MSTORE PUSH32 0x54686520746F6B656E2063726561746F72206861766520666F7262696464656E PUSH1 0x44 DUP3 ADD MSTORE PUSH32 0x20494F55206D6967726174696F6E7320666F72207468697320776F726C640000 PUSH1 0x64 DUP3 ADD MSTORE PUSH1 0x84 ADD PUSH2 0x3C4 JUMP JUMPDEST PUSH1 0x0 PUSH2 0x84F DUP11 DUP11 DUP5 DUP12 DUP12 DUP12 DUP12 DUP12 DUP12 PUSH2 0xB1A JUMP JUMPDEST PUSH1 0x0 DUP2 DUP2 MSTORE PUSH1 0x5 PUSH1 0x20 MSTORE PUSH1 0x40 SWAP1 KECCAK256 SLOAD SWAP1 SWAP2 POP PUSH1 0xFF AND ISZERO PUSH2 0x881 JUMPI PUSH1 0x40 MLOAD PUSH3 0x461BCD PUSH1 0xE5 SHL DUP2 MSTORE PUSH1 0x4 ADD PUSH2 0x3C4 SWAP1 PUSH2 0xD8C JUMP JUMPDEST PUSH1 0x0 DUP2 DUP2 MSTORE PUSH1 0x5 PUSH1 0x20 SWAP1 DUP2 MSTORE PUSH1 0x40 DUP1 DUP4 KECCAK256 DUP1 SLOAD PUSH1 0xFF NOT AND PUSH1 0x1 OR SWAP1 SSTORE MLOAD PUSH1 0x60 DUP14 SWAP1 SHL PUSH12 0xFFFFFFFFFFFFFFFFFFFFFFFF NOT AND SWAP2 DUP2 ADD SWAP2 SWAP1 SWAP2 MSTORE PUSH1 0x34 DUP2 ADD DUP12 SWAP1 MSTORE DUP3 SWAP2 PUSH1 0x6 SWAP2 PUSH1 0x54 ADD PUSH1 0x40 MLOAD PUSH1 0x20 DUP2 DUP4 SUB SUB DUP2 MSTORE SWAP1 PUSH1 0x40 MSTORE DUP1 MLOAD SWAP1 PUSH1 0x20 ADD KECCAK256 DUP2 MSTORE PUSH1 0x20 ADD SWAP1 DUP2 MSTORE PUSH1 0x20 ADD PUSH1 0x0 KECCAK256 DUP2 SWAP1 SSTORE POP DUP1 DUP10 DUP12 PUSH1 0x1 PUSH1 0x1 PUSH1 0xA0 SHL SUB AND PUSH32 0xFA90ED0AAA999D2CB82691A60B10F4A8F6543965F9073AF93D8E0AF64ED1A08D DUP6 DUP13 DUP13 DUP13 DUP13 DUP13 DUP13 PUSH1 0x40 MLOAD PUSH2 0x5DC SWAP8 SWAP7 SWAP6 SWAP5 SWAP4 SWAP3 SWAP2 SWAP1 PUSH2 0xDD1 JUMP JUMPDEST PUSH1 0x1 PUSH1 0x1 PUSH1 0xA0 SHL SUB DUP6 DUP2 AND PUSH1 0x0 DUP2 DUP2 MSTORE PUSH1 0x9 PUSH1 0x20 MSTORE PUSH1 0x40 DUP1 DUP3 KECCAK256 SLOAD SWAP1 MLOAD PUSH4 0x6E62D79F PUSH1 0xE1 SHL DUP2 MSTORE PUSH1 0x4 DUP2 ADD SWAP4 SWAP1 SWAP4 MSTORE PUSH1 0x24 DUP4 ADD DUP9 SWAP1 MSTORE PUSH1 0x44 DUP4 ADD DUP8 SWAP1 MSTORE PUSH1 0x64 DUP4 ADD DUP7 SWAP1 MSTORE PUSH1 0x84 DUP4 ADD DUP6 SWAP1 MSTORE SWAP1 SWAP3 AND SWAP1 PUSH4 0xDCC5AF3E SWAP1 PUSH1 0xA4 ADD PUSH1 0x20 PUSH1 0x40 MLOAD DUP1 DUP4 SUB DUP2 DUP7 DUP1 EXTCODESIZE ISZERO DUP1 ISZERO PUSH2 0x9A7 JUMPI PUSH1 0x0 DUP1 REVERT JUMPDEST POP GAS STATICCALL ISZERO DUP1 ISZERO PUSH2 0x9BB JUMPI RETURNDATASIZE PUSH1 0x0 DUP1 RETURNDATACOPY RETURNDATASIZE PUSH1 0x0 REVERT JUMPDEST POP POP POP POP PUSH1 0x40 MLOAD RETURNDATASIZE PUSH1 0x1F NOT PUSH1 0x1F DUP3 ADD AND DUP3 ADD DUP1 PUSH1 0x40 MSTORE POP DUP2 ADD SWAP1 PUSH2 0x9DF SWAP2 SWAP1 PUSH2 0xCE7 JUMP JUMPDEST SWAP7 SWAP6 POP POP POP POP POP POP JUMP JUMPDEST PUSH1 0x0 DUP2 DUP2 MSTORE PUSH1 0x7 PUSH1 0x20 MSTORE PUSH1 0x40 DUP2 KECCAK256 SLOAD DUP1 PUSH2 0xA7D JUMPI PUSH1 0x40 MLOAD PUSH3 0x461BCD PUSH1 0xE5 SHL DUP2 MSTORE PUSH1 0x20 PUSH1 0x4 DUP3 ADD MSTORE PUSH1 0x49 PUSH1 0x24 DUP3 ADD MSTORE PUSH32 0x54686520746F6B656E206173736F63696174656420776974682074686973206D PUSH1 0x44 DUP3 ADD MSTORE PUSH32 0x6967726174696F6E20686173682068617665206E6F74206265656E206465706F PUSH1 0x64 DUP3 ADD MSTORE PUSH9 0x1CDA5D1959081E595D PUSH1 0xBA SHL PUSH1 0x84 DUP3 ADD MSTORE PUSH1 0xA4 ADD PUSH2 0x3C4 JUMP JUMPDEST SWAP3 SWAP2 POP POP JUMP JUMPDEST PUSH1 0x40 MLOAD DUP14 ISZERO ISZERO PUSH1 0xF8 SHL PUSH1 0x20 DUP3 ADD MSTORE PUSH1 0x21 DUP2 ADD DUP14 SWAP1 MSTORE PUSH1 0x41 DUP2 ADD DUP13 SWAP1 MSTORE PUSH1 0x61 DUP2 ADD DUP12 SWAP1 MSTORE PUSH1 0x81 DUP2 ADD DUP11 SWAP1 MSTORE PUSH1 0xA1 DUP2 ADD DUP10 SWAP1 MSTORE PUSH1 0xC1 DUP2 ADD DUP9 SWAP1 MSTORE PUSH1 0xE1 DUP2 ADD DUP8 SWAP1 MSTORE PUSH2 0x101 DUP2 ADD DUP7 SWAP1 MSTORE PUSH2 0x121 DUP2 ADD DUP6 SWAP1 MSTORE PUSH2 0x141 DUP2 ADD DUP5 SWAP1 MSTORE PUSH2 0x161 DUP2 ADD DUP4 SWAP1 MSTORE PUSH2 0x181 DUP2 ADD DUP3 SWAP1 MSTORE PUSH1 0x0 SWAP1 PUSH2 0x1A1 ADD PUSH1 0x40 MLOAD PUSH1 0x20 DUP2 DUP4 SUB SUB DUP2 MSTORE SWAP1 PUSH1 0x40 MSTORE DUP1 MLOAD SWAP1 PUSH1 0x20 ADD KECCAK256 SWAP1 POP SWAP14 SWAP13 POP POP POP POP POP POP POP POP POP POP POP POP POP JUMP JUMPDEST PUSH1 0x4 SLOAD PUSH1 0x0 SWAP1 PUSH2 0xB44 SWAP1 PUSH1 0x1 SWAP1 ADDRESS PUSH1 0x1 PUSH1 0x1 PUSH1 0xA0 SHL SUB DUP15 DUP2 AND SWAP1 DUP15 SWAP1 DUP15 AND DUP14 DUP14 DUP14 DUP14 DUP14 DUP14 TIMESTAMP PUSH2 0xA83 JUMP JUMPDEST SWAP11 SWAP10 POP POP POP POP POP POP POP POP POP POP JUMP JUMPDEST PUSH1 0x1 PUSH1 0x1 PUSH1 0xA0 SHL SUB DUP2 AND DUP2 EQ PUSH2 0xB67 JUMPI PUSH1 0x0 DUP1 REVERT JUMPDEST POP JUMP JUMPDEST PUSH1 0x0 DUP1 PUSH1 0x0 DUP1 PUSH1 0x0 DUP1 PUSH1 0x0 DUP1 PUSH1 0x0 DUP1 PUSH1 0x0 DUP1 PUSH2 0x180 DUP14 DUP16 SUB SLT ISZERO PUSH2 0xB8D JUMPI PUSH1 0x0 DUP1 REVERT JUMPDEST DUP13 CALLDATALOAD SWAP12 POP PUSH1 0x20 DUP14 ADD CALLDATALOAD PUSH2 0xB9F DUP2 PUSH2 0xB52 JUMP JUMPDEST SWAP11 POP PUSH1 0x40 DUP14 ADD CALLDATALOAD PUSH2 0xBAF DUP2 PUSH2 0xB52 JUMP JUMPDEST SWAP10 POP PUSH1 0x60 DUP14 ADD CALLDATALOAD SWAP9 POP PUSH1 0x80 DUP14 ADD CALLDATALOAD PUSH2 0xBC6 DUP2 PUSH2 0xB52 JUMP JUMPDEST SWAP12 SWAP15 SWAP11 SWAP14 POP SWAP9 SWAP12 SWAP8 SWAP11 SWAP10 PUSH1 0xA0 DUP10 ADD CALLDATALOAD SWAP10 POP PUSH1 0xC0 DUP10 ADD CALLDATALOAD SWAP9 PUSH1 0xE0 DUP2 ADD CALLDATALOAD SWAP9 POP PUSH2 0x100 DUP2 ADD CALLDATALOAD SWAP8 POP PUSH2 0x120 DUP2 ADD CALLDATALOAD SWAP7 POP PUSH2 0x140 DUP2 ADD CALLDATALOAD SWAP6 POP PUSH2 0x160 ADD CALLDATALOAD SWAP4 POP SWAP2 POP POP JUMP JUMPDEST PUSH1 0x0 DUP1 PUSH1 0x0 DUP1 PUSH1 0x0 PUSH1 0xA0 DUP7 DUP9 SUB SLT ISZERO PUSH2 0xC20 JUMPI PUSH1 0x0 DUP1 REVERT JUMPDEST DUP6 CALLDATALOAD PUSH2 0xC2B DUP2 PUSH2 0xB52 JUMP JUMPDEST SWAP8 PUSH1 0x20 DUP8 ADD CALLDATALOAD SWAP8 POP PUSH1 0x40 DUP8 ADD CALLDATALOAD SWAP7 PUSH1 0x60 DUP2 ADD CALLDATALOAD SWAP7 POP PUSH1 0x80 ADD CALLDATALOAD SWAP5 POP SWAP3 POP POP POP JUMP JUMPDEST PUSH1 0x0 PUSH1 0x20 DUP3 DUP5 SUB SLT ISZERO PUSH2 0xC5E JUMPI PUSH1 0x0 DUP1 REVERT JUMPDEST POP CALLDATALOAD SWAP2 SWAP1 POP JUMP JUMPDEST PUSH1 0x0 DUP1 PUSH1 0x0 DUP1 PUSH1 0x0 DUP1 PUSH1 0x0 DUP1 PUSH2 0x100 DUP10 DUP12 SUB SLT ISZERO PUSH2 0xC82 JUMPI PUSH1 0x0 DUP1 REVERT JUMPDEST DUP9 CALLDATALOAD PUSH2 0xC8D DUP2 PUSH2 0xB52 JUMP JUMPDEST SWAP11 PUSH1 0x20 DUP11 ADD CALLDATALOAD SWAP11 POP PUSH1 0x40 DUP11 ADD CALLDATALOAD SWAP10 PUSH1 0x60 DUP2 ADD CALLDATALOAD SWAP10 POP PUSH1 0x80 DUP2 ADD CALLDATALOAD SWAP9 POP PUSH1 0xA0 DUP2 ADD CALLDATALOAD SWAP8 POP PUSH1 0xC0 DUP2 ADD CALLDATALOAD SWAP7 POP PUSH1 0xE0 ADD CALLDATALOAD SWAP5 POP SWAP3 POP POP POP JUMP JUMPDEST PUSH1 0x0 PUSH1 0x20 DUP3 DUP5 SUB SLT ISZERO PUSH2 0xCD5 JUMPI PUSH1 0x0 DUP1 REVERT JUMPDEST DUP2 MLOAD PUSH2 0xCE0 DUP2 PUSH2 0xB52 JUMP JUMPDEST SWAP4 SWAP3 POP POP POP JUMP JUMPDEST PUSH1 0x0 PUSH1 0x20 DUP3 DUP5 SUB SLT ISZERO PUSH2 0xCF9 JUMPI PUSH1 0x0 DUP1 REVERT JUMPDEST DUP2 MLOAD DUP1 ISZERO ISZERO DUP2 EQ PUSH2 0xCE0 JUMPI PUSH1 0x0 DUP1 REVERT JUMPDEST PUSH1 0x20 DUP1 DUP3 MSTORE PUSH1 0x57 SWAP1 DUP3 ADD MSTORE PUSH32 0x6D73672E73656E646572206973206E6F742074686520746F6B656E206F776E65 PUSH1 0x40 DUP3 ADD MSTORE PUSH32 0x722C20616E206F70657261746F722C206F722074686520616363726564697465 PUSH1 0x60 DUP3 ADD MSTORE PUSH32 0x64206164647265737320666F722074686520746F6B656E000000000000000000 PUSH1 0x80 DUP3 ADD MSTORE PUSH1 0xA0 ADD SWAP1 JUMP JUMPDEST PUSH1 0x20 DUP1 DUP3 MSTORE PUSH1 0x25 SWAP1 DUP3 ADD MSTORE PUSH32 0x54686973206D6967726174696F6E2077617320616C7265616479207265676973 PUSH1 0x40 DUP3 ADD MSTORE PUSH5 0x1D195C9959 PUSH1 0xDA SHL PUSH1 0x60 DUP3 ADD MSTORE PUSH1 0x80 ADD SWAP1 JUMP JUMPDEST PUSH1 0x1 PUSH1 0x1 PUSH1 0xA0 SHL SUB SWAP8 SWAP1 SWAP8 AND DUP8 MSTORE PUSH1 0x20 DUP8 ADD SWAP6 SWAP1 SWAP6 MSTORE PUSH1 0x40 DUP7 ADD SWAP4 SWAP1 SWAP4 MSTORE PUSH1 0x60 DUP6 ADD SWAP2 SWAP1 SWAP2 MSTORE PUSH1 0x80 DUP5 ADD MSTORE PUSH1 0xA0 DUP4 ADD MSTORE PUSH1 0xC0 DUP3 ADD MSTORE PUSH1 0xE0 ADD SWAP1 JUMP INVALID LOG2 PUSH5 0x6970667358 0x22 SLT KECCAK256 PUSH6 0x38947619842D SHL PUSH10 0xFFF086348240F1EDDE88 0x5C 0xC6 0xEC 0x21 DUP15 PUSH32 0xC7EC02AC69369164736F6C634300080900330000000000000000000000000000 "
		},
		"gasEstimates": {
			"creation": {
				"codeDepositCost": "730000",
				"executionCost": "766",
				"totalCost": "730766"
			},
			"external": {
				"acceptedMigrationDestinationERC721Full(address,uint256,bytes32,bytes32,bytes32)": "infinite",
				"acceptedMigrationDestinationERC721IOU(address,uint256,bytes32,bytes32,bytes32)": "2652",
				"generateMigrationHashERC721Full(bytes32,address,address,uint256,address,bytes32,bytes32,bytes32,bytes32,bytes32,bytes32,bytes32)": "infinite",
				"generateMigrationHashERC721IOU(bytes32,address,address,uint256,address,bytes32,bytes32,bytes32,bytes32,bytes32,bytes32,bytes32)": "infinite",
				"getProofOfEscrowHash(bytes32)": "2622",
				"isMigrationPreRegisteredERC721(bytes32)": "2495",
				"migrateToERC721Full(address,uint256,bytes32,bytes32,bytes32,bytes32,bytes32,bytes32)": "infinite",
				"migrateToERC721IOU(address,uint256,bytes32,bytes32,bytes32,bytes32,bytes32,bytes32)": "infinite"
			},
			"internal": {
				"generateMigrationHashArtificial(bool,bytes32,bytes32,bytes32,bytes32,bytes32,bytes32,bytes32,bytes32,bytes32,bytes32,bytes32,bytes32)": "infinite",
				"generateMigrationHashArtificialLocalFull(address,uint256,address,bytes32,bytes32,bytes32,bytes32,bytes32,bytes32)": "infinite",
				"generateMigrationHashArtificialLocalIOU(address,uint256,address,bytes32,bytes32,bytes32,bytes32,bytes32,bytes32)": "infinite"
			}
		},
		"methodIdentifiers": {
			"acceptedMigrationDestinationERC721Full(address,uint256,bytes32,bytes32,bytes32)": "ece34ef9",
			"acceptedMigrationDestinationERC721IOU(address,uint256,bytes32,bytes32,bytes32)": "4e641890",
			"generateMigrationHashERC721Full(bytes32,address,address,uint256,address,bytes32,bytes32,bytes32,bytes32,bytes32,bytes32,bytes32)": "0eb55f08",
			"generateMigrationHashERC721IOU(bytes32,address,address,uint256,address,bytes32,bytes32,bytes32,bytes32,bytes32,bytes32,bytes32)": "c25b0c09",
			"getProofOfEscrowHash(bytes32)": "f57dc650",
			"isMigrationPreRegisteredERC721(bytes32)": "5ceb78e1",
			"migrateToERC721Full(address,uint256,bytes32,bytes32,bytes32,bytes32,bytes32,bytes32)": "d0c1d38b",
			"migrateToERC721IOU(address,uint256,bytes32,bytes32,bytes32,bytes32,bytes32,bytes32)": "ea841b47"
		}
	},
	"abi": [
		{
			"anonymous": false,
			"inputs": [
				{
					"indexed": true,
					"internalType": "address",
					"name": "_originWorld",
					"type": "address"
				},
				{
					"indexed": true,
					"internalType": "uint256",
					"name": "_originTokenId",
					"type": "uint256"
				},
				{
					"indexed": false,
					"internalType": "address",
					"name": "_originOwner",
					"type": "address"
				},
				{
					"indexed": false,
					"internalType": "bytes32",
					"name": "_destinationUniverse",
					"type": "bytes32"
				},
				{
					"indexed": false,
					"internalType": "bytes32",
					"name": "_destinationBridge",
					"type": "bytes32"
				},
				{
					"indexed": false,
					"internalType": "bytes32",
					"name": "_destinationWorld",
					"type": "bytes32"
				},
				{
					"indexed": false,
					"internalType": "bytes32",
					"name": "_destinationTokenId",
					"type": "bytes32"
				},
				{
					"indexed": false,
					"internalType": "bytes32",
					"name": "_destinationOwner",
					"type": "bytes32"
				},
				{
					"indexed": false,
					"internalType": "bytes32",
					"name": "_signee",
					"type": "bytes32"
				},
				{
					"indexed": true,
					"internalType": "bytes32",
					"name": "_migrationHash",
					"type": "bytes32"
				}
			],
			"name": "MigrationDeparturePreRegisteredERC721Full",
			"type": "event"
		},
		{
			"anonymous": false,
			"inputs": [
				{
					"indexed": true,
					"internalType": "address",
					"name": "_originWorld",
					"type": "address"
				},
				{
					"indexed": true,
					"internalType": "uint256",
					"name": "_originTokenId",
					"type": "uint256"
				},
				{
					"indexed": false,
					"internalType": "address",
					"name": "_originOwner",
					"type": "address"
				},
				{
					"indexed": false,
					"internalType": "bytes32",
					"name": "_destinationUniverse",
					"type": "bytes32"
				},
				{
					"indexed": false,
					"internalType": "bytes32",
					"name": "_destinationBridge",
					"type": "bytes32"
				},
				{
					"indexed": false,
					"internalType": "bytes32",
					"name": "_destinationWorld",
					"type": "bytes32"
				},
				{
					"indexed": false,
					"internalType": "bytes32",
					"name": "_destinationTokenId",
					"type": "bytes32"
				},
				{
					"indexed": false,
					"internalType": "bytes32",
					"name": "_destinationOwner",
					"type": "bytes32"
				},
				{
					"indexed": false,
					"internalType": "bytes32",
					"name": "_signee",
					"type": "bytes32"
				},
				{
					"indexed": true,
					"internalType": "bytes32",
					"name": "_migrationHash",
					"type": "bytes32"
				}
			],
			"name": "MigrationDeparturePreRegisteredERC721IOU",
			"type": "event"
		},
		{
			"inputs": [
				{
					"internalType": "address",
					"name": "_originWorld",
					"type": "address"
				},
				{
					"internalType": "uint256",
					"name": "_originTokenId",
					"type": "uint256"
				},
				{
					"internalType": "bytes32",
					"name": "_destinationUniverse",
					"type": "bytes32"
				},
				{
					"internalType": "bytes32",
					"name": "_destinationWorld",
					"type": "bytes32"
				},
				{
					"internalType": "bytes32",
					"name": "_destinationTokenId",
					"type": "bytes32"
				}
			],
			"name": "acceptedMigrationDestinationERC721Full",
			"outputs": [
				{
					"internalType": "bool",
					"name": "",
					"type": "bool"
				}
			],
			"stateMutability": "view",
			"type": "function"
		},
		{
			"inputs": [
				{
					"internalType": "address",
					"name": "_originWorld",
					"type": "address"
				},
				{
					"internalType": "uint256",
					"name": "",
					"type": "uint256"
				},
				{
					"internalType": "bytes32",
					"name": "",
					"type": "bytes32"
				},
				{
					"internalType": "bytes32",
					"name": "",
					"type": "bytes32"
				},
				{
					"internalType": "bytes32",
					"name": "",
					"type": "bytes32"
				}
			],
			"name": "acceptedMigrationDestinationERC721IOU",
			"outputs": [
				{
					"internalType": "bool",
					"name": "",
					"type": "bool"
				}
			],
			"stateMutability": "view",
			"type": "function"
		},
		{
			"inputs": [
				{
					"internalType": "bytes32",
					"name": "_originUniverse",
					"type": "bytes32"
				},
				{
					"internalType": "address",
					"name": "_originBridge",
					"type": "address"
				},
				{
					"internalType": "address",
					"name": "_originWorld",
					"type": "address"
				},
				{
					"internalType": "uint256",
					"name": "_originTokenId",
					"type": "uint256"
				},
				{
					"internalType": "address",
					"name": "_originOwner",
					"type": "address"
				},
				{
					"internalType": "bytes32",
					"name": "_destinationUniverse",
					"type": "bytes32"
				},
				{
					"internalType": "bytes32",
					"name": "_destinationBridge",
					"type": "bytes32"
				},
				{
					"internalType": "bytes32",
					"name": "_destinationWorld",
					"type": "bytes32"
				},
				{
					"internalType": "bytes32",
					"name": "_destinationTokenId",
					"type": "bytes32"
				},
				{
					"internalType": "bytes32",
					"name": "_destinationOwner",
					"type": "bytes32"
				},
				{
					"internalType": "bytes32",
					"name": "_signee",
					"type": "bytes32"
				},
				{
					"internalType": "bytes32",
					"name": "_originHeight",
					"type": "bytes32"
				}
			],
			"name": "generateMigrationHashERC721Full",
			"outputs": [
				{
					"internalType": "bytes32",
					"name": "",
					"type": "bytes32"
				}
			],
			"stateMutability": "pure",
			"type": "function"
		},
		{
			"inputs": [
				{
					"internalType": "bytes32",
					"name": "_originUniverse",
					"type": "bytes32"
				},
				{
					"internalType": "address",
					"name": "_originBridge",
					"type": "address"
				},
				{
					"internalType": "address",
					"name": "_originWorld",
					"type": "address"
				},
				{
					"internalType": "uint256",
					"name": "_originTokenId",
					"type": "uint256"
				},
				{
					"internalType": "address",
					"name": "_originOwner",
					"type": "address"
				},
				{
					"internalType": "bytes32",
					"name": "_destinationUniverse",
					"type": "bytes32"
				},
				{
					"internalType": "bytes32",
					"name": "_destinationBridge",
					"type": "bytes32"
				},
				{
					"internalType": "bytes32",
					"name": "_destinationWorld",
					"type": "bytes32"
				},
				{
					"internalType": "bytes32",
					"name": "_destinationTokenId",
					"type": "bytes32"
				},
				{
					"internalType": "bytes32",
					"name": "_destinationOwner",
					"type": "bytes32"
				},
				{
					"internalType": "bytes32",
					"name": "_signee",
					"type": "bytes32"
				},
				{
					"internalType": "bytes32",
					"name": "_originHeight",
					"type": "bytes32"
				}
			],
			"name": "generateMigrationHashERC721IOU",
			"outputs": [
				{
					"internalType": "bytes32",
					"name": "",
					"type": "bytes32"
				}
			],
			"stateMutability": "pure",
			"type": "function"
		},
		{
			"inputs": [
				{
					"internalType": "bytes32",
					"name": "_migrationHash",
					"type": "bytes32"
				}
			],
			"name": "getProofOfEscrowHash",
			"outputs": [
				{
					"internalType": "bytes32",
					"name": "",
					"type": "bytes32"
				}
			],
			"stateMutability": "view",
			"type": "function"
		},
		{
			"inputs": [
				{
					"internalType": "bytes32",
					"name": "_migrationHash",
					"type": "bytes32"
				}
			],
			"name": "isMigrationPreRegisteredERC721",
			"outputs": [
				{
					"internalType": "bool",
					"name": "",
					"type": "bool"
				}
			],
			"stateMutability": "view",
			"type": "function"
		},
		{
			"inputs": [
				{
					"internalType": "address",
					"name": "_originWorld",
					"type": "address"
				},
				{
					"internalType": "uint256",
					"name": "_originTokenId",
					"type": "uint256"
				},
				{
					"internalType": "bytes32",
					"name": "_destinationUniverse",
					"type": "bytes32"
				},
				{
					"internalType": "bytes32",
					"name": "_destinationBridge",
					"type": "bytes32"
				},
				{
					"internalType": "bytes32",
					"name": "_destinationWorld",
					"type": "bytes32"
				},
				{
					"internalType": "bytes32",
					"name": "_destinationTokenId",
					"type": "bytes32"
				},
				{
					"internalType": "bytes32",
					"name": "_destinationOwner",
					"type": "bytes32"
				},
				{
					"internalType": "bytes32",
					"name": "_signee",
					"type": "bytes32"
				}
			],
			"name": "migrateToERC721Full",
			"outputs": [],
			"stateMutability": "nonpayable",
			"type": "function"
		},
		{
			"inputs": [
				{
					"internalType": "address",
					"name": "_originWorld",
					"type": "address"
				},
				{
					"internalType": "uint256",
					"name": "_originTokenId",
					"type": "uint256"
				},
				{
					"internalType": "bytes32",
					"name": "_destinationUniverse",
					"type": "bytes32"
				},
				{
					"internalType": "bytes32",
					"name": "_destinationBridge",
					"type": "bytes32"
				},
				{
					"internalType": "bytes32",
					"name": "_destinationWorld",
					"type": "bytes32"
				},
				{
					"internalType": "bytes32",
					"name": "_destinationTokenId",
					"type": "bytes32"
				},
				{
					"internalType": "bytes32",
					"name": "_destinationOwner",
					"type": "bytes32"
				},
				{
					"internalType": "bytes32",
					"name": "_signee",
					"type": "bytes32"
				}
			],
			"name": "migrateToERC721IOU",
			"outputs": [],
			"stateMutability": "nonpayable",
			"type": "function"
		}
	]
}