{
  "contractName": "FullMigrationController",
  "abi": [
    {
      "inputs": [
        {
          "internalType": "address",
          "name": "_originWorld",
          "type": "address"
        },
        {
          "internalType": "bytes32",
          "name": "_destinationUniverse",
          "type": "bytes32"
        },
        {
          "internalType": "bytes32",
          "name": "_destinationWorld",
          "type": "bytes32"
        }
      ],
      "name": "approveFullMigration",
      "outputs": [],
      "stateMutability": "nonpayable",
      "type": "function"
    },
    {
      "inputs": [
        {
          "internalType": "address",
          "name": "_originWorld",
          "type": "address"
        },
        {
          "internalType": "bytes32",
          "name": "_destinationUniverse",
          "type": "bytes32"
        },
        {
          "internalType": "bytes32",
          "name": "_destinationWorld",
          "type": "bytes32"
        }
      ],
      "name": "cancelFullMigration",
      "outputs": [],
      "stateMutability": "nonpayable",
      "type": "function"
    },
    {
      "inputs": [
        {
          "internalType": "address",
          "name": "_originWorld",
          "type": "address"
        },
        {
          "internalType": "bytes32",
          "name": "_destinationUniverse",
          "type": "bytes32"
        },
        {
          "internalType": "bytes32",
          "name": "_destinationWorld",
          "type": "bytes32"
        }
      ],
      "name": "acceptableMigration",
      "outputs": [
        {
          "internalType": "bool",
          "name": "",
          "type": "bool"
        }
      ],
      "stateMutability": "view",
      "type": "function"
    }
  ],
  "bytecode": "0x608060405234801561001057600080fd5b506103f4806100206000396000f3fe608060405234801561001057600080fd5b50600436106100405760003560e01c80628aa1b9146100455780634c229f021461005a5780634dccf93114610081575b600080fd5b610058610053366004610313565b610094565b005b61006d610068366004610313565b61019d565b604051901515815260200160405180910390f35b61005861008f366004610313565b6101fe565b826001600160a01b0316638da5cb5b6040518163ffffffff1660e01b815260040160206040518083038186803b1580156100cd57600080fd5b505afa1580156100e1573d6000803e3d6000fd5b505050506040513d601f19601f820116820180604052508101906101059190610348565b6001600160a01b0316336001600160a01b03161461013e5760405162461bcd60e51b81526004016101359061036c565b60405180910390fd5b604080516020810184905290810182905260009060600160408051601f1981840301815291815281516020928301206001600160a01b03909616600090815280835281812096815295909152909320805460ff19166001179055505050565b60008083836040516020016101bc929190918252602082015260400190565b60408051601f1981840301815291815281516020928301206001600160a01b0388166000908152808452828120918152925290205460ff169150509392505050565b826001600160a01b0316638da5cb5b6040518163ffffffff1660e01b815260040160206040518083038186803b15801561023757600080fd5b505afa15801561024b573d6000803e3d6000fd5b505050506040513d601f19601f8201168201806040525081019061026f9190610348565b6001600160a01b0316336001600160a01b03161461029f5760405162461bcd60e51b81526004016101359061036c565b604080516020810184905290810182905260009060600160408051601f1981840301815291815281516020928301206001600160a01b03909616600090815280835281812096815295909152909320805460ff19169055505050565b6001600160a01b038116811461031057600080fd5b50565b60008060006060848603121561032857600080fd5b8335610333816102fb565b95602085013595506040909401359392505050565b60006020828403121561035a57600080fd5b8151610365816102fb565b9392505050565b60208082526032908201527f6d73672e73656e646572206973206e6f7420746865206f776e65722c206f66206040820152711d1a19481d1bdad95b8818dbdb9d1c9858dd60721b60608201526080019056fea26469706673582212205b2a43d439e95624d8daf56bcd1162553a07aeee909d412bea07fb1de98bd9b664736f6c63430008090033",
  "immutableReferences": {},
  "source": "// SPDX-License-Identifier: Unlicense\npragma solidity 0.8.9;\n\nimport \"../../../Generic/ownable.sol\";\n\ncontract FullMigrationController {\n\n    mapping(address => mapping(bytes32 => bool)) migrationAllowed;\n\n    function approveFullMigration(address _originWorld, bytes32 _destinationUniverse, bytes32 _destinationWorld) external {\n      \n        require(msg.sender == Ownable(_originWorld).owner(),\n            \"msg.sender is not the owner, of the token contract\"\n        );\n\n        bytes32 destination = keccak256(abi.encodePacked(_destinationUniverse, _destinationWorld));\n        migrationAllowed[_originWorld][destination] = true;\n    }\n\n    function cancelFullMigration(address _originWorld, bytes32 _destinationUniverse, bytes32 _destinationWorld) external {\n      \n        require(msg.sender == Ownable(_originWorld).owner(),\n            \"msg.sender is not the owner, of the token contract\"\n        );\n\n        bytes32 destination = keccak256(abi.encodePacked(_destinationUniverse, _destinationWorld));\n        migrationAllowed[_originWorld][destination] = false;\n    }\n\n    function acceptableMigration(\n        address _originWorld, \n        bytes32 _destinationUniverse, \n        bytes32 _destinationWorld\n    ) external view returns(bool) {\n        bytes32 destination = keccak256(abi.encodePacked(_destinationUniverse, _destinationWorld));\n        return migrationAllowed[_originWorld][destination];\n    }\n\n}",
  "sourcePath": "/mnt/c/Users/Javier/Desktop/NF/myNFT-Bridge/Codebase/Bridge_Contracts/contracts/bridge/Implementation/BridgeFeatures/FullMigrationController.sol",
  "compiler": {
    "name": "solc",
    "version": "0.8.9+commit.e5eed63a.Emscripten.clang"
  },
  "schemaVersion": "3.4.4",
  "updatedAt": "2023-07-31T19:31:18.984Z",
  "devdoc": {
    "kind": "dev",
    "methods": {},
    "version": 1
  },
  "userdoc": {
    "kind": "user",
    "methods": {},
    "version": 1
  }
}